{
  "_format": "hh-sol-artifact-1",
  "contractName": "SelfSovereignIdentity",
  "sourceName": "contracts/SSID.sol",
  "abi": [
    {
      "inputs": [
        {
          "internalType": "string",
          "name": "_name",
          "type": "string"
        },
        {
          "internalType": "string",
          "name": "_symbol",
          "type": "string"
        }
      ],
      "stateMutability": "nonpayable",
      "type": "constructor"
    },
    {
      "anonymous": false,
      "inputs": [
        {
          "indexed": true,
          "internalType": "address",
          "name": "owner",
          "type": "address"
        },
        {
          "indexed": true,
          "internalType": "address",
          "name": "approved",
          "type": "address"
        },
        {
          "indexed": true,
          "internalType": "uint256",
          "name": "tokenId",
          "type": "uint256"
        }
      ],
      "name": "Approval",
      "type": "event"
    },
    {
      "anonymous": false,
      "inputs": [
        {
          "indexed": true,
          "internalType": "address",
          "name": "owner",
          "type": "address"
        },
        {
          "indexed": true,
          "internalType": "address",
          "name": "operator",
          "type": "address"
        },
        {
          "indexed": false,
          "internalType": "bool",
          "name": "approved",
          "type": "bool"
        }
      ],
      "name": "ApprovalForAll",
      "type": "event"
    },
    {
      "anonymous": false,
      "inputs": [
        {
          "indexed": true,
          "internalType": "address",
          "name": "previousOwner",
          "type": "address"
        },
        {
          "indexed": true,
          "internalType": "address",
          "name": "newOwner",
          "type": "address"
        }
      ],
      "name": "OwnershipTransferred",
      "type": "event"
    },
    {
      "anonymous": false,
      "inputs": [
        {
          "indexed": true,
          "internalType": "address",
          "name": "from",
          "type": "address"
        },
        {
          "indexed": true,
          "internalType": "address",
          "name": "to",
          "type": "address"
        },
        {
          "indexed": true,
          "internalType": "uint256",
          "name": "tokenId",
          "type": "uint256"
        }
      ],
      "name": "Transfer",
      "type": "event"
    },
    {
      "inputs": [
        {
          "internalType": "address",
          "name": "to",
          "type": "address"
        },
        {
          "internalType": "uint256",
          "name": "tokenId",
          "type": "uint256"
        }
      ],
      "name": "approve",
      "outputs": [],
      "stateMutability": "nonpayable",
      "type": "function"
    },
    {
      "inputs": [
        {
          "internalType": "address",
          "name": "owner",
          "type": "address"
        }
      ],
      "name": "balanceOf",
      "outputs": [
        {
          "internalType": "uint256",
          "name": "",
          "type": "uint256"
        }
      ],
      "stateMutability": "view",
      "type": "function"
    },
    {
      "inputs": [
        {
          "internalType": "string",
          "name": "_firstName",
          "type": "string"
        },
        {
          "internalType": "string",
          "name": "_lastName",
          "type": "string"
        },
        {
          "internalType": "uint256",
          "name": "_dateOfBirth",
          "type": "uint256"
        },
        {
          "internalType": "string",
          "name": "_fatherName",
          "type": "string"
        },
        {
          "internalType": "string",
          "name": "_motherName",
          "type": "string"
        },
        {
          "internalType": "string",
          "name": "_placeOfBirth",
          "type": "string"
        },
        {
          "internalType": "string",
          "name": "_gender",
          "type": "string"
        },
        {
          "internalType": "string",
          "name": "_socialStatus",
          "type": "string"
        },
        {
          "internalType": "string",
          "name": "_city",
          "type": "string"
        },
        {
          "internalType": "string",
          "name": "_imgUrl",
          "type": "string"
        },
        {
          "internalType": "address",
          "name": "_assignTo",
          "type": "address"
        }
      ],
      "name": "createIdentity",
      "outputs": [],
      "stateMutability": "nonpayable",
      "type": "function"
    },
    {
      "inputs": [
        {
          "internalType": "uint256",
          "name": "tokenId",
          "type": "uint256"
        }
      ],
      "name": "getApproved",
      "outputs": [
        {
          "internalType": "address",
          "name": "",
          "type": "address"
        }
      ],
      "stateMutability": "view",
      "type": "function"
    },
    {
      "inputs": [
        {
          "internalType": "uint256",
          "name": "_tokenId",
          "type": "uint256"
        }
      ],
      "name": "getIdentity",
      "outputs": [
        {
          "internalType": "string",
          "name": "",
          "type": "string"
        },
        {
          "internalType": "string",
          "name": "",
          "type": "string"
        },
        {
          "internalType": "uint256",
          "name": "",
          "type": "uint256"
        },
        {
          "internalType": "string",
          "name": "",
          "type": "string"
        },
        {
          "internalType": "string",
          "name": "",
          "type": "string"
        },
        {
          "internalType": "string",
          "name": "",
          "type": "string"
        },
        {
          "internalType": "string",
          "name": "",
          "type": "string"
        },
        {
          "internalType": "string",
          "name": "",
          "type": "string"
        },
        {
          "internalType": "string",
          "name": "",
          "type": "string"
        },
        {
          "internalType": "string",
          "name": "",
          "type": "string"
        }
      ],
      "stateMutability": "view",
      "type": "function"
    },
    {
      "inputs": [],
      "name": "getMyIdentity",
      "outputs": [
        {
          "internalType": "string",
          "name": "",
          "type": "string"
        },
        {
          "internalType": "string",
          "name": "",
          "type": "string"
        },
        {
          "internalType": "uint256",
          "name": "",
          "type": "uint256"
        },
        {
          "internalType": "string",
          "name": "",
          "type": "string"
        },
        {
          "internalType": "string",
          "name": "",
          "type": "string"
        },
        {
          "internalType": "string",
          "name": "",
          "type": "string"
        },
        {
          "internalType": "string",
          "name": "",
          "type": "string"
        },
        {
          "internalType": "string",
          "name": "",
          "type": "string"
        },
        {
          "internalType": "string",
          "name": "",
          "type": "string"
        },
        {
          "internalType": "string",
          "name": "",
          "type": "string"
        }
      ],
      "stateMutability": "view",
      "type": "function"
    },
    {
      "inputs": [
        {
          "internalType": "uint256",
          "name": "_tokenId",
          "type": "uint256"
        }
      ],
      "name": "isAdult",
      "outputs": [
        {
          "internalType": "bool",
          "name": "",
          "type": "bool"
        }
      ],
      "stateMutability": "view",
      "type": "function"
    },
    {
      "inputs": [
        {
          "internalType": "address",
          "name": "owner",
          "type": "address"
        },
        {
          "internalType": "address",
          "name": "operator",
          "type": "address"
        }
      ],
      "name": "isApprovedForAll",
      "outputs": [
        {
          "internalType": "bool",
          "name": "",
          "type": "bool"
        }
      ],
      "stateMutability": "view",
      "type": "function"
    },
    {
      "inputs": [],
      "name": "name",
      "outputs": [
        {
          "internalType": "string",
          "name": "",
          "type": "string"
        }
      ],
      "stateMutability": "view",
      "type": "function"
    },
    {
      "inputs": [],
      "name": "owner",
      "outputs": [
        {
          "internalType": "address",
          "name": "",
          "type": "address"
        }
      ],
      "stateMutability": "view",
      "type": "function"
    },
    {
      "inputs": [
        {
          "internalType": "uint256",
          "name": "tokenId",
          "type": "uint256"
        }
      ],
      "name": "ownerOf",
      "outputs": [
        {
          "internalType": "address",
          "name": "",
          "type": "address"
        }
      ],
      "stateMutability": "view",
      "type": "function"
    },
    {
      "inputs": [],
      "name": "renounceOwnership",
      "outputs": [],
      "stateMutability": "nonpayable",
      "type": "function"
    },
    {
      "inputs": [
        {
          "internalType": "address",
          "name": "from",
          "type": "address"
        },
        {
          "internalType": "address",
          "name": "to",
          "type": "address"
        },
        {
          "internalType": "uint256",
          "name": "tokenId",
          "type": "uint256"
        }
      ],
      "name": "safeTransferFrom",
      "outputs": [],
      "stateMutability": "nonpayable",
      "type": "function"
    },
    {
      "inputs": [
        {
          "internalType": "address",
          "name": "from",
          "type": "address"
        },
        {
          "internalType": "address",
          "name": "to",
          "type": "address"
        },
        {
          "internalType": "uint256",
          "name": "tokenId",
          "type": "uint256"
        },
        {
          "internalType": "bytes",
          "name": "data",
          "type": "bytes"
        }
      ],
      "name": "safeTransferFrom",
      "outputs": [],
      "stateMutability": "nonpayable",
      "type": "function"
    },
    {
      "inputs": [
        {
          "internalType": "address",
          "name": "operator",
          "type": "address"
        },
        {
          "internalType": "bool",
          "name": "approved",
          "type": "bool"
        }
      ],
      "name": "setApprovalForAll",
      "outputs": [],
      "stateMutability": "nonpayable",
      "type": "function"
    },
    {
      "inputs": [
        {
          "internalType": "bytes4",
          "name": "interfaceId",
          "type": "bytes4"
        }
      ],
      "name": "supportsInterface",
      "outputs": [
        {
          "internalType": "bool",
          "name": "",
          "type": "bool"
        }
      ],
      "stateMutability": "view",
      "type": "function"
    },
    {
      "inputs": [],
      "name": "symbol",
      "outputs": [
        {
          "internalType": "string",
          "name": "",
          "type": "string"
        }
      ],
      "stateMutability": "view",
      "type": "function"
    },
    {
      "inputs": [
        {
          "internalType": "uint256",
          "name": "index",
          "type": "uint256"
        }
      ],
      "name": "tokenByIndex",
      "outputs": [
        {
          "internalType": "uint256",
          "name": "",
          "type": "uint256"
        }
      ],
      "stateMutability": "view",
      "type": "function"
    },
    {
      "inputs": [
        {
          "internalType": "address",
          "name": "owner",
          "type": "address"
        },
        {
          "internalType": "uint256",
          "name": "index",
          "type": "uint256"
        }
      ],
      "name": "tokenOfOwnerByIndex",
      "outputs": [
        {
          "internalType": "uint256",
          "name": "",
          "type": "uint256"
        }
      ],
      "stateMutability": "view",
      "type": "function"
    },
    {
      "inputs": [
        {
          "internalType": "uint256",
          "name": "tokenId",
          "type": "uint256"
        }
      ],
      "name": "tokenURI",
      "outputs": [
        {
          "internalType": "string",
          "name": "",
          "type": "string"
        }
      ],
      "stateMutability": "view",
      "type": "function"
    },
    {
      "inputs": [],
      "name": "totalSupply",
      "outputs": [
        {
          "internalType": "uint256",
          "name": "",
          "type": "uint256"
        }
      ],
      "stateMutability": "view",
      "type": "function"
    },
    {
      "inputs": [
        {
          "internalType": "address",
          "name": "from",
          "type": "address"
        },
        {
          "internalType": "address",
          "name": "to",
          "type": "address"
        },
        {
          "internalType": "uint256",
          "name": "tokenId",
          "type": "uint256"
        }
      ],
      "name": "transferFrom",
      "outputs": [],
      "stateMutability": "nonpayable",
      "type": "function"
    },
    {
      "inputs": [
        {
          "internalType": "address",
          "name": "newOwner",
          "type": "address"
        }
      ],
      "name": "transferOwnership",
      "outputs": [],
      "stateMutability": "nonpayable",
      "type": "function"
    },
    {
      "inputs": [
        {
          "internalType": "uint256",
          "name": "_tokenId",
          "type": "uint256"
        },
        {
          "internalType": "string",
          "name": "_firstName",
          "type": "string"
        },
        {
          "internalType": "string",
          "name": "_lastName",
          "type": "string"
        },
        {
          "internalType": "uint256",
          "name": "_dateOfBirth",
          "type": "uint256"
        },
        {
          "internalType": "string",
          "name": "_fatherName",
          "type": "string"
        },
        {
          "internalType": "string",
          "name": "_motherName",
          "type": "string"
        },
        {
          "internalType": "string",
          "name": "_placeOfBirth",
          "type": "string"
        },
        {
          "internalType": "string",
          "name": "_gender",
          "type": "string"
        },
        {
          "internalType": "string",
          "name": "_socialStatus",
          "type": "string"
        },
        {
          "internalType": "string",
          "name": "_city",
          "type": "string"
        },
        {
          "internalType": "string",
          "name": "_imgUrl",
          "type": "string"
        }
      ],
      "name": "updateIdentity",
      "outputs": [],
      "stateMutability": "nonpayable",
      "type": "function"
    }
  ],
  "bytecode": "0x60806040523480156200001157600080fd5b50604051620059a6380380620059a68339818101604052810190620000379190620003b8565b81818160009080519060200190620000519291906200016b565b5080600190805190602001906200006a9291906200016b565b5050506200008d620000816200009d60201b60201c565b620000a560201b60201c565b6000600d819055505050620004a2565b600033905090565b6000600a60009054906101000a900473ffffffffffffffffffffffffffffffffffffffff16905081600a60006101000a81548173ffffffffffffffffffffffffffffffffffffffff021916908373ffffffffffffffffffffffffffffffffffffffff1602179055508173ffffffffffffffffffffffffffffffffffffffff168173ffffffffffffffffffffffffffffffffffffffff167f8be0079c531659141344cd1fd0a4f28419497f9722a3daafe3b4186f6b6457e060405160405180910390a35050565b82805462000179906200046c565b90600052602060002090601f0160209004810192826200019d5760008555620001e9565b82601f10620001b857805160ff1916838001178555620001e9565b82800160010185558215620001e9579182015b82811115620001e8578251825591602001919060010190620001cb565b5b509050620001f89190620001fc565b5090565b5b8082111562000217576000816000905550600101620001fd565b5090565b6000604051905090565b600080fd5b600080fd5b600080fd5b600080fd5b6000601f19601f8301169050919050565b7f4e487b7100000000000000000000000000000000000000000000000000000000600052604160045260246000fd5b620002848262000239565b810181811067ffffffffffffffff82111715620002a657620002a56200024a565b5b80604052505050565b6000620002bb6200021b565b9050620002c9828262000279565b919050565b600067ffffffffffffffff821115620002ec57620002eb6200024a565b5b620002f78262000239565b9050602081019050919050565b60005b838110156200032457808201518184015260208101905062000307565b8381111562000334576000848401525b50505050565b6000620003516200034b84620002ce565b620002af565b90508281526020810184848401111562000370576200036f62000234565b5b6200037d84828562000304565b509392505050565b600082601f8301126200039d576200039c6200022f565b5b8151620003af8482602086016200033a565b91505092915050565b60008060408385031215620003d257620003d162000225565b5b600083015167ffffffffffffffff811115620003f357620003f26200022a565b5b620004018582860162000385565b925050602083015167ffffffffffffffff8111156200042557620004246200022a565b5b620004338582860162000385565b9150509250929050565b7f4e487b7100000000000000000000000000000000000000000000000000000000600052602260045260246000fd5b600060028204905060018216806200048557607f821691505b602082108114156200049c576200049b6200043d565b5b50919050565b6154f480620004b26000396000f3fe608060405234801561001057600080fd5b50600436106101585760003560e01c806370a08231116100c3578063a22cb4651161007c578063a22cb465146103f4578063b88d4fde14610410578063b9d696471461042c578063c87b56dd14610453578063e985e9c514610483578063f2fde38b146104b357610158565b806370a0823114610329578063715018a61461035957806385e3f05814610363578063878de95d1461039c5780638da5cb5b146103b857806395d89b41146103d657610158565b80632c2d6e4a116101155780632c2d6e4a146102315780632f745c591461024d57806342842e0e1461027d5780634f6ccce7146102995780635d9d28e5146102c95780636352211e146102f957610158565b806301ffc9a71461015d57806306fdde031461018d578063081812fc146101ab578063095ea7b3146101db57806318160ddd146101f757806323b872dd14610215575b600080fd5b61017760048036038101906101729190613847565b6104cf565b604051610184919061388f565b60405180910390f35b6101956104e1565b6040516101a29190613943565b60405180910390f35b6101c560048036038101906101c0919061399b565b610573565b6040516101d29190613a09565b60405180910390f35b6101f560048036038101906101f09190613a50565b6105b9565b005b6101ff6106d1565b60405161020c9190613a9f565b60405180910390f35b61022f600480360381019061022a9190613aba565b6106de565b005b61024b60048036038101906102469190613c42565b61073e565b005b61026760048036038101906102629190613a50565b610968565b6040516102749190613a9f565b60405180910390f35b61029760048036038101906102929190613aba565b610a0d565b005b6102b360048036038101906102ae919061399b565b610a2d565b6040516102c09190613a9f565b60405180910390f35b6102e360048036038101906102de919061399b565b610a9e565b6040516102f0919061388f565b60405180910390f35b610313600480360381019061030e919061399b565b611056565b6040516103209190613a09565b60405180910390f35b610343600480360381019061033e9190613e32565b6110dd565b6040516103509190613a9f565b60405180910390f35b610361611195565b005b61037d6004803603810190610378919061399b565b6111a9565b6040516103939a99989796959493929190613e5f565b60405180910390f35b6103b660048036038101906103b19190613f3a565b61181e565b005b6103c0611d81565b6040516103cd9190613a09565b60405180910390f35b6103de611dab565b6040516103eb9190613943565b60405180910390f35b61040e60048036038101906104099190614156565b611e3d565b005b61042a60048036038101906104259190614237565b611e53565b005b610434611eb5565b60405161044a9a99989796959493929190613e5f565b60405180910390f35b61046d6004803603810190610468919061399b565b612017565b60405161047a9190613943565b60405180910390f35b61049d600480360381019061049891906142ba565b61207f565b6040516104aa919061388f565b60405180910390f35b6104cd60048036038101906104c89190613e32565b612113565b005b60006104da82612197565b9050919050565b6060600080546104f090614329565b80601f016020809104026020016040519081016040528092919081815260200182805461051c90614329565b80156105695780601f1061053e57610100808354040283529160200191610569565b820191906000526020600020905b81548152906001019060200180831161054c57829003601f168201915b5050505050905090565b600061057e82612211565b6004600083815260200190815260200160002060009054906101000a900473ffffffffffffffffffffffffffffffffffffffff169050919050565b60006105c482611056565b90508073ffffffffffffffffffffffffffffffffffffffff168373ffffffffffffffffffffffffffffffffffffffff161415610635576040517f08c379a000000000000000000000000000000000000000000000000000000000815260040161062c906143cd565b60405180910390fd5b8073ffffffffffffffffffffffffffffffffffffffff1661065461225c565b73ffffffffffffffffffffffffffffffffffffffff16148061068357506106828161067d61225c565b61207f565b5b6106c2576040517f08c379a00000000000000000000000000000000000000000000000000000000081526004016106b99061445f565b60405180910390fd5b6106cc8383612264565b505050565b6000600880549050905090565b6106ef6106e961225c565b8261231d565b61072e576040517f08c379a0000000000000000000000000000000000000000000000000000000008152600401610725906144f1565b60405180910390fd5b6107398383836123b2565b505050565b6107466126ac565b60008a511161078a576040517f08c379a00000000000000000000000000000000000000000000000000000000081526004016107819061455d565b60405180910390fd5b60008951116107ce576040517f08c379a00000000000000000000000000000000000000000000000000000000081526004016107c5906145c9565b60405180910390fd5b60008811610811576040517f08c379a000000000000000000000000000000000000000000000000000000000815260040161080890614635565b60405180910390fd5b61081a8b61272a565b610859576040517f08c379a0000000000000000000000000000000000000000000000000000000008152600401610850906146a1565b60405180910390fd5b6000600b60008d815260200190815260200160002090508a816000019080519060200190610888929190613738565b50898160010190805190602001906108a1929190613738565b50888160020181905550878160030190805190602001906108c3929190613738565b50868160040190805190602001906108dc929190613738565b50858160050190805190602001906108f5929190613738565b508481600601908051906020019061090e929190613738565b5083816007019080519060200190610927929190613738565b5082816008019080519060200190610940929190613738565b5081816009019080519060200190610959929190613738565b50505050505050505050505050565b6000610973836110dd565b82106109b4576040517f08c379a00000000000000000000000000000000000000000000000000000000081526004016109ab90614733565b60405180910390fd5b600660008473ffffffffffffffffffffffffffffffffffffffff1673ffffffffffffffffffffffffffffffffffffffff168152602001908152602001600020600083815260200190815260200160002054905092915050565b610a2883838360405180602001604052806000815250611e53565b505050565b6000610a376106d1565b8210610a78576040517f08c379a0000000000000000000000000000000000000000000000000000000008152600401610a6f906147c5565b60405180910390fd5b60088281548110610a8c57610a8b6147e5565b5b90600052602060002001549050919050565b6000610aa98261272a565b610ae8576040517f08c379a0000000000000000000000000000000000000000000000000000000008152600401610adf906146a1565b60405180910390fd5b6000600b600084815260200190815260200160002060405180610140016040529081600082018054610b1990614329565b80601f0160208091040260200160405190810160405280929190818152602001828054610b4590614329565b8015610b925780601f10610b6757610100808354040283529160200191610b92565b820191906000526020600020905b815481529060010190602001808311610b7557829003601f168201915b50505050508152602001600182018054610bab90614329565b80601f0160208091040260200160405190810160405280929190818152602001828054610bd790614329565b8015610c245780601f10610bf957610100808354040283529160200191610c24565b820191906000526020600020905b815481529060010190602001808311610c0757829003601f168201915b5050505050815260200160028201548152602001600382018054610c4790614329565b80601f0160208091040260200160405190810160405280929190818152602001828054610c7390614329565b8015610cc05780601f10610c9557610100808354040283529160200191610cc0565b820191906000526020600020905b815481529060010190602001808311610ca357829003601f168201915b50505050508152602001600482018054610cd990614329565b80601f0160208091040260200160405190810160405280929190818152602001828054610d0590614329565b8015610d525780601f10610d2757610100808354040283529160200191610d52565b820191906000526020600020905b815481529060010190602001808311610d3557829003601f168201915b50505050508152602001600582018054610d6b90614329565b80601f0160208091040260200160405190810160405280929190818152602001828054610d9790614329565b8015610de45780601f10610db957610100808354040283529160200191610de4565b820191906000526020600020905b815481529060010190602001808311610dc757829003601f168201915b50505050508152602001600682018054610dfd90614329565b80601f0160208091040260200160405190810160405280929190818152602001828054610e2990614329565b8015610e765780601f10610e4b57610100808354040283529160200191610e76565b820191906000526020600020905b815481529060010190602001808311610e5957829003601f168201915b50505050508152602001600782018054610e8f90614329565b80601f0160208091040260200160405190810160405280929190818152602001828054610ebb90614329565b8015610f085780601f10610edd57610100808354040283529160200191610f08565b820191906000526020600020905b815481529060010190602001808311610eeb57829003601f168201915b50505050508152602001600882018054610f2190614329565b80601f0160208091040260200160405190810160405280929190818152602001828054610f4d90614329565b8015610f9a5780601f10610f6f57610100808354040283529160200191610f9a565b820191906000526020600020905b815481529060010190602001808311610f7d57829003601f168201915b50505050508152602001600982018054610fb390614329565b80601f0160208091040260200160405190810160405280929190818152602001828054610fdf90614329565b801561102c5780601f106110015761010080835404028352916020019161102c565b820191906000526020600020905b81548152906001019060200180831161100f57829003601f168201915b50505050508152505090506000611046826040015161276b565b9050601281101592505050919050565b6000806110628361279a565b9050600073ffffffffffffffffffffffffffffffffffffffff168173ffffffffffffffffffffffffffffffffffffffff1614156110d4576040517f08c379a00000000000000000000000000000000000000000000000000000000081526004016110cb90614860565b60405180910390fd5b80915050919050565b60008073ffffffffffffffffffffffffffffffffffffffff168273ffffffffffffffffffffffffffffffffffffffff16141561114e576040517f08c379a0000000000000000000000000000000000000000000000000000000008152600401611145906148f2565b60405180910390fd5b600360008373ffffffffffffffffffffffffffffffffffffffff1673ffffffffffffffffffffffffffffffffffffffff168152602001908152602001600020549050919050565b61119d6126ac565b6111a760006127d7565b565b606080600060608060608060608060608a3373ffffffffffffffffffffffffffffffffffffffff166111da82611056565b73ffffffffffffffffffffffffffffffffffffffff1614611230576040517f08c379a00000000000000000000000000000000000000000000000000000000081526004016112279061495e565b60405180910390fd5b6112398c61272a565b611278576040517f08c379a000000000000000000000000000000000000000000000000000000000815260040161126f906146a1565b60405180910390fd5b6000600b60008e8152602001908152602001600020604051806101400160405290816000820180546112a990614329565b80601f01602080910402602001604051908101604052809291908181526020018280546112d590614329565b80156113225780601f106112f757610100808354040283529160200191611322565b820191906000526020600020905b81548152906001019060200180831161130557829003601f168201915b5050505050815260200160018201805461133b90614329565b80601f016020809104026020016040519081016040528092919081815260200182805461136790614329565b80156113b45780601f10611389576101008083540402835291602001916113b4565b820191906000526020600020905b81548152906001019060200180831161139757829003601f168201915b50505050508152602001600282015481526020016003820180546113d790614329565b80601f016020809104026020016040519081016040528092919081815260200182805461140390614329565b80156114505780601f1061142557610100808354040283529160200191611450565b820191906000526020600020905b81548152906001019060200180831161143357829003601f168201915b5050505050815260200160048201805461146990614329565b80601f016020809104026020016040519081016040528092919081815260200182805461149590614329565b80156114e25780601f106114b7576101008083540402835291602001916114e2565b820191906000526020600020905b8154815290600101906020018083116114c557829003601f168201915b505050505081526020016005820180546114fb90614329565b80601f016020809104026020016040519081016040528092919081815260200182805461152790614329565b80156115745780601f1061154957610100808354040283529160200191611574565b820191906000526020600020905b81548152906001019060200180831161155757829003601f168201915b5050505050815260200160068201805461158d90614329565b80601f01602080910402602001604051908101604052809291908181526020018280546115b990614329565b80156116065780601f106115db57610100808354040283529160200191611606565b820191906000526020600020905b8154815290600101906020018083116115e957829003601f168201915b5050505050815260200160078201805461161f90614329565b80601f016020809104026020016040519081016040528092919081815260200182805461164b90614329565b80156116985780601f1061166d57610100808354040283529160200191611698565b820191906000526020600020905b81548152906001019060200180831161167b57829003601f168201915b505050505081526020016008820180546116b190614329565b80601f01602080910402602001604051908101604052809291908181526020018280546116dd90614329565b801561172a5780601f106116ff5761010080835404028352916020019161172a565b820191906000526020600020905b81548152906001019060200180831161170d57829003601f168201915b5050505050815260200160098201805461174390614329565b80601f016020809104026020016040519081016040528092919081815260200182805461176f90614329565b80156117bc5780601f10611791576101008083540402835291602001916117bc565b820191906000526020600020905b81548152906001019060200180831161179f57829003601f168201915b5050505050815250509050806000015181602001518260400151836060015184608001518560a001518660c001518760e001518861010001518961012001519b509b509b509b509b509b509b509b509b509b5050509193959799509193959799565b6118266126ac565b60016118306106d1565b10611870576040517f08c379a0000000000000000000000000000000000000000000000000000000008152600401611867906149ca565b60405180910390fd5b60008b51116118b4576040517f08c379a00000000000000000000000000000000000000000000000000000000081526004016118ab9061455d565b60405180910390fd5b60008a51116118f8576040517f08c379a00000000000000000000000000000000000000000000000000000000081526004016118ef906145c9565b60405180910390fd5b6000891161193b576040517f08c379a000000000000000000000000000000000000000000000000000000000815260040161193290614635565b60405180910390fd5b600088511161197f576040517f08c379a000000000000000000000000000000000000000000000000000000000815260040161197690614a36565b60405180910390fd5b60008751116119c3576040517f08c379a00000000000000000000000000000000000000000000000000000000081526004016119ba90614aa2565b60405180910390fd5b6000865111611a07576040517f08c379a00000000000000000000000000000000000000000000000000000000081526004016119fe90614b0e565b60405180910390fd5b6000855111611a4b576040517f08c379a0000000000000000000000000000000000000000000000000000000008152600401611a4290614b7a565b60405180910390fd5b6000845111611a8f576040517f08c379a0000000000000000000000000000000000000000000000000000000008152600401611a8690614be6565b60405180910390fd5b6000835111611ad3576040517f08c379a0000000000000000000000000000000000000000000000000000000008152600401611aca90614c52565b60405180910390fd5b6000825111611b17576040517f08c379a0000000000000000000000000000000000000000000000000000000008152600401611b0e90614cbe565b60405180910390fd5b600073ffffffffffffffffffffffffffffffffffffffff168173ffffffffffffffffffffffffffffffffffffffff161415611b87576040517f08c379a0000000000000000000000000000000000000000000000000000000008152600401611b7e90614d2a565b60405180910390fd5b60006040518061014001604052808d81526020018c81526020018b81526020018a815260200189815260200188815260200187815260200186815260200185815260200184815250905080600b6000600d5481526020019081526020016000206000820151816000019080519060200190611c03929190613738565b506020820151816001019080519060200190611c20929190613738565b50604082015181600201556060820151816003019080519060200190611c47929190613738565b506080820151816004019080519060200190611c64929190613738565b5060a0820151816005019080519060200190611c81929190613738565b5060c0820151816006019080519060200190611c9e929190613738565b5060e0820151816007019080519060200190611cbb929190613738565b50610100820151816008019080519060200190611cd9929190613738565b50610120820151816009019080519060200190611cf7929190613738565b50905050611d0782600d5461289d565b81600c6000600d54815260200190815260200160002060006101000a81548173ffffffffffffffffffffffffffffffffffffffff021916908373ffffffffffffffffffffffffffffffffffffffff160217905550600d6000815480929190611d6e90614d79565b9190505550505050505050505050505050565b6000600a60009054906101000a900473ffffffffffffffffffffffffffffffffffffffff16905090565b606060018054611dba90614329565b80601f0160208091040260200160405190810160405280929190818152602001828054611de690614329565b8015611e335780601f10611e0857610100808354040283529160200191611e33565b820191906000526020600020905b815481529060010190602001808311611e1657829003601f168201915b5050505050905090565b611e4f611e4861225c565b83836128bb565b5050565b611e64611e5e61225c565b8361231d565b611ea3576040517f08c379a0000000000000000000000000000000000000000000000000000000008152600401611e9a906144f1565b60405180910390fd5b611eaf84848484612a28565b50505050565b606080600060608060608060608060606000611ecf6106d1565b905060005b81811015611f6057611ee58161272a565b8015611f2457503373ffffffffffffffffffffffffffffffffffffffff16611f0c82611056565b73ffffffffffffffffffffffffffffffffffffffff16145b15611f4d57611f32816111a9565b9b509b509b509b509b509b509b509b509b509b50505061200b565b8080611f5890614d79565b915050611ed4565b50600060405180602001604052806000815250906040518060200160405280600081525090604051806020016040528060008152506040518060200160405280600081525060405180602001604052806000815250604051806020016040528060008152506040518060200160405280600081525060405180602001604052806000815250604051806020016040528060008152509a509a509a509a509a509a509a509a509a509a50505b90919293949596979899565b606061202282612211565b600061202c612a84565b9050600081511161204c5760405180602001604052806000815250612077565b8061205684612a9b565b604051602001612067929190614dfe565b6040516020818303038152906040525b915050919050565b6000600560008473ffffffffffffffffffffffffffffffffffffffff1673ffffffffffffffffffffffffffffffffffffffff16815260200190815260200160002060008373ffffffffffffffffffffffffffffffffffffffff1673ffffffffffffffffffffffffffffffffffffffff16815260200190815260200160002060009054906101000a900460ff16905092915050565b61211b6126ac565b600073ffffffffffffffffffffffffffffffffffffffff168173ffffffffffffffffffffffffffffffffffffffff16141561218b576040517f08c379a000000000000000000000000000000000000000000000000000000000815260040161218290614e94565b60405180910390fd5b612194816127d7565b50565b60007f780e9d63000000000000000000000000000000000000000000000000000000007bffffffffffffffffffffffffffffffffffffffffffffffffffffffff1916827bffffffffffffffffffffffffffffffffffffffffffffffffffffffff1916148061220a575061220982612b73565b5b9050919050565b61221a8161272a565b612259576040517f08c379a000000000000000000000000000000000000000000000000000000000815260040161225090614860565b60405180910390fd5b50565b600033905090565b816004600083815260200190815260200160002060006101000a81548173ffffffffffffffffffffffffffffffffffffffff021916908373ffffffffffffffffffffffffffffffffffffffff160217905550808273ffffffffffffffffffffffffffffffffffffffff166122d783611056565b73ffffffffffffffffffffffffffffffffffffffff167f8c5be1e5ebec7d5bd14f71427d1e84f3dd0314c0f7b2291e5b200ac8c7c3b92560405160405180910390a45050565b60008061232983611056565b90508073ffffffffffffffffffffffffffffffffffffffff168473ffffffffffffffffffffffffffffffffffffffff16148061236b575061236a818561207f565b5b806123a957508373ffffffffffffffffffffffffffffffffffffffff1661239184610573565b73ffffffffffffffffffffffffffffffffffffffff16145b91505092915050565b8273ffffffffffffffffffffffffffffffffffffffff166123d282611056565b73ffffffffffffffffffffffffffffffffffffffff1614612428576040517f08c379a000000000000000000000000000000000000000000000000000000000815260040161241f90614f26565b60405180910390fd5b600073ffffffffffffffffffffffffffffffffffffffff168273ffffffffffffffffffffffffffffffffffffffff161415612498576040517f08c379a000000000000000000000000000000000000000000000000000000000815260040161248f90614fb8565b60405180910390fd5b6124a58383836001612c55565b8273ffffffffffffffffffffffffffffffffffffffff166124c582611056565b73ffffffffffffffffffffffffffffffffffffffff161461251b576040517f08c379a000000000000000000000000000000000000000000000000000000000815260040161251290614f26565b60405180910390fd5b6004600082815260200190815260200160002060006101000a81549073ffffffffffffffffffffffffffffffffffffffff02191690556001600360008573ffffffffffffffffffffffffffffffffffffffff1673ffffffffffffffffffffffffffffffffffffffff168152602001908152602001600020600082825403925050819055506001600360008473ffffffffffffffffffffffffffffffffffffffff1673ffffffffffffffffffffffffffffffffffffffff16815260200190815260200160002060008282540192505081905550816002600083815260200190815260200160002060006101000a81548173ffffffffffffffffffffffffffffffffffffffff021916908373ffffffffffffffffffffffffffffffffffffffff160217905550808273ffffffffffffffffffffffffffffffffffffffff168473ffffffffffffffffffffffffffffffffffffffff167fddf252ad1be2c89b69c2b068fc378daa952ba7f163c4a11628f55a4df523b3ef60405160405180910390a46126a78383836001612cd6565b505050565b6126b461225c565b73ffffffffffffffffffffffffffffffffffffffff166126d2611d81565b73ffffffffffffffffffffffffffffffffffffffff1614612728576040517f08c379a000000000000000000000000000000000000000000000000000000000815260040161271f90615024565b60405180910390fd5b565b60008073ffffffffffffffffffffffffffffffffffffffff1661274c8361279a565b73ffffffffffffffffffffffffffffffffffffffff1614159050919050565b60008042905060006301e1338084836127849190615044565b61278e91906150a7565b90508092505050919050565b60006002600083815260200190815260200160002060009054906101000a900473ffffffffffffffffffffffffffffffffffffffff169050919050565b6000600a60009054906101000a900473ffffffffffffffffffffffffffffffffffffffff16905081600a60006101000a81548173ffffffffffffffffffffffffffffffffffffffff021916908373ffffffffffffffffffffffffffffffffffffffff1602179055508173ffffffffffffffffffffffffffffffffffffffff168173ffffffffffffffffffffffffffffffffffffffff167f8be0079c531659141344cd1fd0a4f28419497f9722a3daafe3b4186f6b6457e060405160405180910390a35050565b6128b7828260405180602001604052806000815250612cdc565b5050565b8173ffffffffffffffffffffffffffffffffffffffff168373ffffffffffffffffffffffffffffffffffffffff16141561292a576040517f08c379a000000000000000000000000000000000000000000000000000000000815260040161292190615124565b60405180910390fd5b80600560008573ffffffffffffffffffffffffffffffffffffffff1673ffffffffffffffffffffffffffffffffffffffff16815260200190815260200160002060008473ffffffffffffffffffffffffffffffffffffffff1673ffffffffffffffffffffffffffffffffffffffff16815260200190815260200160002060006101000a81548160ff0219169083151502179055508173ffffffffffffffffffffffffffffffffffffffff168373ffffffffffffffffffffffffffffffffffffffff167f17307eab39ab6107e8899845ad3d59bd9653f200f220920489ca2b5937696c3183604051612a1b919061388f565b60405180910390a3505050565b612a338484846123b2565b612a3f84848484612d37565b612a7e576040517f08c379a0000000000000000000000000000000000000000000000000000000008152600401612a75906151b6565b60405180910390fd5b50505050565b606060405180602001604052806000815250905090565b606060006001612aaa84612ece565b01905060008167ffffffffffffffff811115612ac957612ac8613b17565b5b6040519080825280601f01601f191660200182016040528015612afb5781602001600182028036833780820191505090505b509050600082602001820190505b600115612b68578080600190039150507f3031323334353637383961626364656600000000000000000000000000000000600a86061a8153600a8581612b5257612b51615078565b5b0494506000851415612b6357612b68565b612b09565b819350505050919050565b60007f80ac58cd000000000000000000000000000000000000000000000000000000007bffffffffffffffffffffffffffffffffffffffffffffffffffffffff1916827bffffffffffffffffffffffffffffffffffffffffffffffffffffffff19161480612c3e57507f5b5e139f000000000000000000000000000000000000000000000000000000007bffffffffffffffffffffffffffffffffffffffffffffffffffffffff1916827bffffffffffffffffffffffffffffffffffffffffffffffffffffffff1916145b80612c4e5750612c4d82613021565b5b9050919050565b600073ffffffffffffffffffffffffffffffffffffffff168473ffffffffffffffffffffffffffffffffffffffff1614612cc4576040517f08c379a0000000000000000000000000000000000000000000000000000000008152600401612cbb90615222565b60405180910390fd5b612cd08484848461308b565b50505050565b50505050565b612ce683836131eb565b612cf36000848484612d37565b612d32576040517f08c379a0000000000000000000000000000000000000000000000000000000008152600401612d29906151b6565b60405180910390fd5b505050565b6000612d588473ffffffffffffffffffffffffffffffffffffffff16613409565b15612ec1578373ffffffffffffffffffffffffffffffffffffffff1663150b7a02612d8161225c565b8786866040518563ffffffff1660e01b8152600401612da39493929190615297565b602060405180830381600087803b158015612dbd57600080fd5b505af1925050508015612dee57506040513d601f19601f82011682018060405250810190612deb91906152f8565b60015b612e71573d8060008114612e1e576040519150601f19603f3d011682016040523d82523d6000602084013e612e23565b606091505b50600081511415612e69576040517f08c379a0000000000000000000000000000000000000000000000000000000008152600401612e60906151b6565b60405180910390fd5b805181602001fd5b63150b7a0260e01b7bffffffffffffffffffffffffffffffffffffffffffffffffffffffff1916817bffffffffffffffffffffffffffffffffffffffffffffffffffffffff191614915050612ec6565b600190505b949350505050565b600080600090507a184f03e93ff9f4daa797ed6e38ed64bf6a1f0100000000000000008310612f2c577a184f03e93ff9f4daa797ed6e38ed64bf6a1f0100000000000000008381612f2257612f21615078565b5b0492506040810190505b6d04ee2d6d415b85acef81000000008310612f69576d04ee2d6d415b85acef81000000008381612f5f57612f5e615078565b5b0492506020810190505b662386f26fc100008310612f9857662386f26fc100008381612f8e57612f8d615078565b5b0492506010810190505b6305f5e1008310612fc1576305f5e1008381612fb757612fb6615078565b5b0492506008810190505b6127108310612fe6576127108381612fdc57612fdb615078565b5b0492506004810190505b606483106130095760648381612fff57612ffe615078565b5b0492506002810190505b600a8310613018576001810190505b80915050919050565b60007f01ffc9a7000000000000000000000000000000000000000000000000000000007bffffffffffffffffffffffffffffffffffffffffffffffffffffffff1916827bffffffffffffffffffffffffffffffffffffffffffffffffffffffff1916149050919050565b6130978484848461342c565b60018111156130db576040517f08c379a00000000000000000000000000000000000000000000000000000000081526004016130d290615397565b60405180910390fd5b6000829050600073ffffffffffffffffffffffffffffffffffffffff168573ffffffffffffffffffffffffffffffffffffffff1614156131235761311e81613432565b613162565b8373ffffffffffffffffffffffffffffffffffffffff168573ffffffffffffffffffffffffffffffffffffffff161461316157613160858261347b565b5b5b600073ffffffffffffffffffffffffffffffffffffffff168473ffffffffffffffffffffffffffffffffffffffff1614156131a5576131a0816135e8565b6131e4565b8473ffffffffffffffffffffffffffffffffffffffff168473ffffffffffffffffffffffffffffffffffffffff16146131e3576131e284826136b9565b5b5b5050505050565b600073ffffffffffffffffffffffffffffffffffffffff168273ffffffffffffffffffffffffffffffffffffffff16141561325b576040517f08c379a000000000000000000000000000000000000000000000000000000000815260040161325290615403565b60405180910390fd5b6132648161272a565b156132a4576040517f08c379a000000000000000000000000000000000000000000000000000000000815260040161329b9061546f565b60405180910390fd5b6132b2600083836001612c55565b6132bb8161272a565b156132fb576040517f08c379a00000000000000000000000000000000000000000000000000000000081526004016132f29061546f565b60405180910390fd5b6001600360008473ffffffffffffffffffffffffffffffffffffffff1673ffffffffffffffffffffffffffffffffffffffff16815260200190815260200160002060008282540192505081905550816002600083815260200190815260200160002060006101000a81548173ffffffffffffffffffffffffffffffffffffffff021916908373ffffffffffffffffffffffffffffffffffffffff160217905550808273ffffffffffffffffffffffffffffffffffffffff16600073ffffffffffffffffffffffffffffffffffffffff167fddf252ad1be2c89b69c2b068fc378daa952ba7f163c4a11628f55a4df523b3ef60405160405180910390a4613405600083836001612cd6565b5050565b6000808273ffffffffffffffffffffffffffffffffffffffff163b119050919050565b50505050565b6008805490506009600083815260200190815260200160002081905550600881908060018154018082558091505060019003906000526020600020016000909190919091505550565b60006001613488846110dd565b6134929190615044565b9050600060076000848152602001908152602001600020549050818114613577576000600660008673ffffffffffffffffffffffffffffffffffffffff1673ffffffffffffffffffffffffffffffffffffffff168152602001908152602001600020600084815260200190815260200160002054905080600660008773ffffffffffffffffffffffffffffffffffffffff1673ffffffffffffffffffffffffffffffffffffffff168152602001908152602001600020600084815260200190815260200160002081905550816007600083815260200190815260200160002081905550505b6007600084815260200190815260200160002060009055600660008573ffffffffffffffffffffffffffffffffffffffff1673ffffffffffffffffffffffffffffffffffffffff16815260200190815260200160002060008381526020019081526020016000206000905550505050565b600060016008805490506135fc9190615044565b905060006009600084815260200190815260200160002054905060006008838154811061362c5761362b6147e5565b5b90600052602060002001549050806008838154811061364e5761364d6147e5565b5b90600052602060002001819055508160096000838152602001908152602001600020819055506009600085815260200190815260200160002060009055600880548061369d5761369c61548f565b5b6001900381819060005260206000200160009055905550505050565b60006136c4836110dd565b905081600660008573ffffffffffffffffffffffffffffffffffffffff1673ffffffffffffffffffffffffffffffffffffffff168152602001908152602001600020600083815260200190815260200160002081905550806007600084815260200190815260200160002081905550505050565b82805461374490614329565b90600052602060002090601f01602090048101928261376657600085556137ad565b82601f1061377f57805160ff19168380011785556137ad565b828001600101855582156137ad579182015b828111156137ac578251825591602001919060010190613791565b5b5090506137ba91906137be565b5090565b5b808211156137d75760008160009055506001016137bf565b5090565b6000604051905090565b600080fd5b600080fd5b60007fffffffff0000000000000000000000000000000000000000000000000000000082169050919050565b613824816137ef565b811461382f57600080fd5b50565b6000813590506138418161381b565b92915050565b60006020828403121561385d5761385c6137e5565b5b600061386b84828501613832565b91505092915050565b60008115159050919050565b61388981613874565b82525050565b60006020820190506138a46000830184613880565b92915050565b600081519050919050565b600082825260208201905092915050565b60005b838110156138e45780820151818401526020810190506138c9565b838111156138f3576000848401525b50505050565b6000601f19601f8301169050919050565b6000613915826138aa565b61391f81856138b5565b935061392f8185602086016138c6565b613938816138f9565b840191505092915050565b6000602082019050818103600083015261395d818461390a565b905092915050565b6000819050919050565b61397881613965565b811461398357600080fd5b50565b6000813590506139958161396f565b92915050565b6000602082840312156139b1576139b06137e5565b5b60006139bf84828501613986565b91505092915050565b600073ffffffffffffffffffffffffffffffffffffffff82169050919050565b60006139f3826139c8565b9050919050565b613a03816139e8565b82525050565b6000602082019050613a1e60008301846139fa565b92915050565b613a2d816139e8565b8114613a3857600080fd5b50565b600081359050613a4a81613a24565b92915050565b60008060408385031215613a6757613a666137e5565b5b6000613a7585828601613a3b565b9250506020613a8685828601613986565b9150509250929050565b613a9981613965565b82525050565b6000602082019050613ab46000830184613a90565b92915050565b600080600060608486031215613ad357613ad26137e5565b5b6000613ae186828701613a3b565b9350506020613af286828701613a3b565b9250506040613b0386828701613986565b9150509250925092565b600080fd5b600080fd5b7f4e487b7100000000000000000000000000000000000000000000000000000000600052604160045260246000fd5b613b4f826138f9565b810181811067ffffffffffffffff82111715613b6e57613b6d613b17565b5b80604052505050565b6000613b816137db565b9050613b8d8282613b46565b919050565b600067ffffffffffffffff821115613bad57613bac613b17565b5b613bb6826138f9565b9050602081019050919050565b82818337600083830152505050565b6000613be5613be084613b92565b613b77565b905082815260208101848484011115613c0157613c00613b12565b5b613c0c848285613bc3565b509392505050565b600082601f830112613c2957613c28613b0d565b5b8135613c39848260208601613bd2565b91505092915050565b60008060008060008060008060008060006101608c8e031215613c6857613c676137e5565b5b6000613c768e828f01613986565b9b505060208c013567ffffffffffffffff811115613c9757613c966137ea565b5b613ca38e828f01613c14565b9a505060408c013567ffffffffffffffff811115613cc457613cc36137ea565b5b613cd08e828f01613c14565b9950506060613ce18e828f01613986565b98505060808c013567ffffffffffffffff811115613d0257613d016137ea565b5b613d0e8e828f01613c14565b97505060a08c013567ffffffffffffffff811115613d2f57613d2e6137ea565b5b613d3b8e828f01613c14565b96505060c08c013567ffffffffffffffff811115613d5c57613d5b6137ea565b5b613d688e828f01613c14565b95505060e08c013567ffffffffffffffff811115613d8957613d886137ea565b5b613d958e828f01613c14565b9450506101008c013567ffffffffffffffff811115613db757613db66137ea565b5b613dc38e828f01613c14565b9350506101208c013567ffffffffffffffff811115613de557613de46137ea565b5b613df18e828f01613c14565b9250506101408c013567ffffffffffffffff811115613e1357613e126137ea565b5b613e1f8e828f01613c14565b9150509295989b509295989b9093969950565b600060208284031215613e4857613e476137e5565b5b6000613e5684828501613a3b565b91505092915050565b6000610140820190508181036000830152613e7a818d61390a565b90508181036020830152613e8e818c61390a565b9050613e9d604083018b613a90565b8181036060830152613eaf818a61390a565b90508181036080830152613ec3818961390a565b905081810360a0830152613ed7818861390a565b905081810360c0830152613eeb818761390a565b905081810360e0830152613eff818661390a565b9050818103610100830152613f14818561390a565b9050818103610120830152613f29818461390a565b90509b9a5050505050505050505050565b60008060008060008060008060008060006101608c8e031215613f6057613f5f6137e5565b5b60008c013567ffffffffffffffff811115613f7e57613f7d6137ea565b5b613f8a8e828f01613c14565b9b505060208c013567ffffffffffffffff811115613fab57613faa6137ea565b5b613fb78e828f01613c14565b9a50506040613fc88e828f01613986565b99505060608c013567ffffffffffffffff811115613fe957613fe86137ea565b5b613ff58e828f01613c14565b98505060808c013567ffffffffffffffff811115614016576140156137ea565b5b6140228e828f01613c14565b97505060a08c013567ffffffffffffffff811115614043576140426137ea565b5b61404f8e828f01613c14565b96505060c08c013567ffffffffffffffff8111156140705761406f6137ea565b5b61407c8e828f01613c14565b95505060e08c013567ffffffffffffffff81111561409d5761409c6137ea565b5b6140a98e828f01613c14565b9450506101008c013567ffffffffffffffff8111156140cb576140ca6137ea565b5b6140d78e828f01613c14565b9350506101208c013567ffffffffffffffff8111156140f9576140f86137ea565b5b6141058e828f01613c14565b9250506101406141178e828f01613a3b565b9150509295989b509295989b9093969950565b61413381613874565b811461413e57600080fd5b50565b6000813590506141508161412a565b92915050565b6000806040838503121561416d5761416c6137e5565b5b600061417b85828601613a3b565b925050602061418c85828601614141565b9150509250929050565b600067ffffffffffffffff8211156141b1576141b0613b17565b5b6141ba826138f9565b9050602081019050919050565b60006141da6141d584614196565b613b77565b9050828152602081018484840111156141f6576141f5613b12565b5b614201848285613bc3565b509392505050565b600082601f83011261421e5761421d613b0d565b5b813561422e8482602086016141c7565b91505092915050565b60008060008060808587031215614251576142506137e5565b5b600061425f87828801613a3b565b945050602061427087828801613a3b565b935050604061428187828801613986565b925050606085013567ffffffffffffffff8111156142a2576142a16137ea565b5b6142ae87828801614209565b91505092959194509250565b600080604083850312156142d1576142d06137e5565b5b60006142df85828601613a3b565b92505060206142f085828601613a3b565b9150509250929050565b7f4e487b7100000000000000000000000000000000000000000000000000000000600052602260045260246000fd5b6000600282049050600182168061434157607f821691505b60208210811415614355576143546142fa565b5b50919050565b7f4552433732313a20617070726f76616c20746f2063757272656e74206f776e6560008201527f7200000000000000000000000000000000000000000000000000000000000000602082015250565b60006143b76021836138b5565b91506143c28261435b565b604082019050919050565b600060208201905081810360008301526143e6816143aa565b9050919050565b7f4552433732313a20617070726f76652063616c6c6572206973206e6f7420746f60008201527f6b656e206f776e6572206f7220617070726f76656420666f7220616c6c000000602082015250565b6000614449603d836138b5565b9150614454826143ed565b604082019050919050565b600060208201905081810360008301526144788161443c565b9050919050565b7f4552433732313a2063616c6c6572206973206e6f7420746f6b656e206f776e6560008201527f72206f7220617070726f76656400000000000000000000000000000000000000602082015250565b60006144db602d836138b5565b91506144e68261447f565b604082019050919050565b6000602082019050818103600083015261450a816144ce565b9050919050565b7f4669727374206e616d652063616e6e6f7420626520656d707479000000000000600082015250565b6000614547601a836138b5565b915061455282614511565b602082019050919050565b600060208201905081810360008301526145768161453a565b9050919050565b7f4c617374206e616d652063616e6e6f7420626520656d70747900000000000000600082015250565b60006145b36019836138b5565b91506145be8261457d565b602082019050919050565b600060208201905081810360008301526145e2816145a6565b9050919050565b7f496e76616c69642064617465206f662062697274680000000000000000000000600082015250565b600061461f6015836138b5565b915061462a826145e9565b602082019050919050565b6000602082019050818103600083015261464e81614612565b9050919050565b7f4964656e7469747920646f6573206e6f74206578697374000000000000000000600082015250565b600061468b6017836138b5565b915061469682614655565b602082019050919050565b600060208201905081810360008301526146ba8161467e565b9050919050565b7f455243373231456e756d657261626c653a206f776e657220696e646578206f7560008201527f74206f6620626f756e6473000000000000000000000000000000000000000000602082015250565b600061471d602b836138b5565b9150614728826146c1565b604082019050919050565b6000602082019050818103600083015261474c81614710565b9050919050565b7f455243373231456e756d657261626c653a20676c6f62616c20696e646578206f60008201527f7574206f6620626f756e64730000000000000000000000000000000000000000602082015250565b60006147af602c836138b5565b91506147ba82614753565b604082019050919050565b600060208201905081810360008301526147de816147a2565b9050919050565b7f4e487b7100000000000000000000000000000000000000000000000000000000600052603260045260246000fd5b7f4552433732313a20696e76616c696420746f6b656e2049440000000000000000600082015250565b600061484a6018836138b5565b915061485582614814565b602082019050919050565b600060208201905081810360008301526148798161483d565b9050919050565b7f4552433732313a2061646472657373207a65726f206973206e6f74206120766160008201527f6c6964206f776e65720000000000000000000000000000000000000000000000602082015250565b60006148dc6029836138b5565b91506148e782614880565b604082019050919050565b6000602082019050818103600083015261490b816148cf565b9050919050565b7f4e6f7420746865206f776e6572206f6620746865206964656e74697479000000600082015250565b6000614948601d836138b5565b915061495382614912565b602082019050919050565b600060208201905081810360008301526149778161493b565b9050919050565b7f4164647265737320616c72656164792068617320616e206964656e7469747900600082015250565b60006149b4601f836138b5565b91506149bf8261497e565b602082019050919050565b600060208201905081810360008301526149e3816149a7565b9050919050565b7f466174686572206e616d652063616e6e6f7420626520656d7074790000000000600082015250565b6000614a20601b836138b5565b9150614a2b826149ea565b602082019050919050565b60006020820190508181036000830152614a4f81614a13565b9050919050565b7f4d6f74686572206e616d652063616e6e6f7420626520656d7074790000000000600082015250565b6000614a8c601b836138b5565b9150614a9782614a56565b602082019050919050565b60006020820190508181036000830152614abb81614a7f565b9050919050565b7f506c616365206f662062697274682063616e6e6f7420626520656d7074790000600082015250565b6000614af8601e836138b5565b9150614b0382614ac2565b602082019050919050565b60006020820190508181036000830152614b2781614aeb565b9050919050565b7f47656e6465722063616e6e6f7420626520656d70747900000000000000000000600082015250565b6000614b646016836138b5565b9150614b6f82614b2e565b602082019050919050565b60006020820190508181036000830152614b9381614b57565b9050919050565b7f536f6369616c207374617475732063616e6e6f7420626520656d707479000000600082015250565b6000614bd0601d836138b5565b9150614bdb82614b9a565b602082019050919050565b60006020820190508181036000830152614bff81614bc3565b9050919050565b7f436974792063616e6e6f7420626520656d707479000000000000000000000000600082015250565b6000614c3c6014836138b5565b9150614c4782614c06565b602082019050919050565b60006020820190508181036000830152614c6b81614c2f565b9050919050565b7f496d6167652063616e6e6f7420626520656d7074790000000000000000000000600082015250565b6000614ca86015836138b5565b9150614cb382614c72565b602082019050919050565b60006020820190508181036000830152614cd781614c9b565b9050919050565b7f496e76616c69642061737369676e656520616464726573730000000000000000600082015250565b6000614d146018836138b5565b9150614d1f82614cde565b602082019050919050565b60006020820190508181036000830152614d4381614d07565b9050919050565b7f4e487b7100000000000000000000000000000000000000000000000000000000600052601160045260246000fd5b6000614d8482613965565b91507fffffffffffffffffffffffffffffffffffffffffffffffffffffffffffffffff821415614db757614db6614d4a565b5b600182019050919050565b600081905092915050565b6000614dd8826138aa565b614de28185614dc2565b9350614df28185602086016138c6565b80840191505092915050565b6000614e0a8285614dcd565b9150614e168284614dcd565b91508190509392505050565b7f4f776e61626c653a206e6577206f776e657220697320746865207a65726f206160008201527f6464726573730000000000000000000000000000000000000000000000000000602082015250565b6000614e7e6026836138b5565b9150614e8982614e22565b604082019050919050565b60006020820190508181036000830152614ead81614e71565b9050919050565b7f4552433732313a207472616e736665722066726f6d20696e636f72726563742060008201527f6f776e6572000000000000000000000000000000000000000000000000000000602082015250565b6000614f106025836138b5565b9150614f1b82614eb4565b604082019050919050565b60006020820190508181036000830152614f3f81614f03565b9050919050565b7f4552433732313a207472616e7366657220746f20746865207a65726f2061646460008201527f7265737300000000000000000000000000000000000000000000000000000000602082015250565b6000614fa26024836138b5565b9150614fad82614f46565b604082019050919050565b60006020820190508181036000830152614fd181614f95565b9050919050565b7f4f776e61626c653a2063616c6c6572206973206e6f7420746865206f776e6572600082015250565b600061500e6020836138b5565b915061501982614fd8565b602082019050919050565b6000602082019050818103600083015261503d81615001565b9050919050565b600061504f82613965565b915061505a83613965565b92508282101561506d5761506c614d4a565b5b828203905092915050565b7f4e487b7100000000000000000000000000000000000000000000000000000000600052601260045260246000fd5b60006150b282613965565b91506150bd83613965565b9250826150cd576150cc615078565b5b828204905092915050565b7f4552433732313a20617070726f766520746f2063616c6c657200000000000000600082015250565b600061510e6019836138b5565b9150615119826150d8565b602082019050919050565b6000602082019050818103600083015261513d81615101565b9050919050565b7f4552433732313a207472616e7366657220746f206e6f6e20455243373231526560008201527f63656976657220696d706c656d656e7465720000000000000000000000000000602082015250565b60006151a06032836138b5565b91506151ab82615144565b604082019050919050565b600060208201905081810360008301526151cf81615193565b9050919050565b7f546f6b656e206e6f74207472616e7366657261626c6500000000000000000000600082015250565b600061520c6016836138b5565b9150615217826151d6565b602082019050919050565b6000602082019050818103600083015261523b816151ff565b9050919050565b600081519050919050565b600082825260208201905092915050565b600061526982615242565b615273818561524d565b93506152838185602086016138c6565b61528c816138f9565b840191505092915050565b60006080820190506152ac60008301876139fa565b6152b960208301866139fa565b6152c66040830185613a90565b81810360608301526152d8818461525e565b905095945050505050565b6000815190506152f28161381b565b92915050565b60006020828403121561530e5761530d6137e5565b5b600061531c848285016152e3565b91505092915050565b7f455243373231456e756d657261626c653a20636f6e736563757469766520747260008201527f616e7366657273206e6f7420737570706f727465640000000000000000000000602082015250565b60006153816035836138b5565b915061538c82615325565b604082019050919050565b600060208201905081810360008301526153b081615374565b9050919050565b7f4552433732313a206d696e7420746f20746865207a65726f2061646472657373600082015250565b60006153ed6020836138b5565b91506153f8826153b7565b602082019050919050565b6000602082019050818103600083015261541c816153e0565b9050919050565b7f4552433732313a20746f6b656e20616c7265616479206d696e74656400000000600082015250565b6000615459601c836138b5565b915061546482615423565b602082019050919050565b600060208201905081810360008301526154888161544c565b9050919050565b7f4e487b7100000000000000000000000000000000000000000000000000000000600052603160045260246000fdfea2646970667358221220c39646add2263d6f626a3aba3ed48f49c381bdaeb4bf87e5acf56169582644f364736f6c63430008090033",
  "linkReferences": {},
  "deployedLinkReferences": {}
}