{
  "_format": "hh-sol-artifact-1",
  "contractName": "SelfSovereignIdentity",
  "sourceName": "contracts/SSID.sol",
  "abi": [
    {
      "inputs": [
        {
          "internalType": "string",
          "name": "_name",
          "type": "string"
        },
        {
          "internalType": "string",
          "name": "_symbol",
          "type": "string"
        }
      ],
      "stateMutability": "nonpayable",
      "type": "constructor"
    },
    {
      "anonymous": false,
      "inputs": [
        {
          "indexed": true,
          "internalType": "address",
          "name": "owner",
          "type": "address"
        },
        {
          "indexed": true,
          "internalType": "address",
          "name": "approved",
          "type": "address"
        },
        {
          "indexed": true,
          "internalType": "uint256",
          "name": "tokenId",
          "type": "uint256"
        }
      ],
      "name": "Approval",
      "type": "event"
    },
    {
      "anonymous": false,
      "inputs": [
        {
          "indexed": true,
          "internalType": "address",
          "name": "owner",
          "type": "address"
        },
        {
          "indexed": true,
          "internalType": "address",
          "name": "operator",
          "type": "address"
        },
        {
          "indexed": false,
          "internalType": "bool",
          "name": "approved",
          "type": "bool"
        }
      ],
      "name": "ApprovalForAll",
      "type": "event"
    },
    {
      "anonymous": false,
      "inputs": [
        {
          "indexed": true,
          "internalType": "address",
          "name": "previousOwner",
          "type": "address"
        },
        {
          "indexed": true,
          "internalType": "address",
          "name": "newOwner",
          "type": "address"
        }
      ],
      "name": "OwnershipTransferred",
      "type": "event"
    },
    {
      "anonymous": false,
      "inputs": [
        {
          "indexed": true,
          "internalType": "address",
          "name": "from",
          "type": "address"
        },
        {
          "indexed": true,
          "internalType": "address",
          "name": "to",
          "type": "address"
        },
        {
          "indexed": true,
          "internalType": "uint256",
          "name": "tokenId",
          "type": "uint256"
        }
      ],
      "name": "Transfer",
      "type": "event"
    },
    {
      "inputs": [
        {
          "internalType": "address",
          "name": "to",
          "type": "address"
        },
        {
          "internalType": "uint256",
          "name": "tokenId",
          "type": "uint256"
        }
      ],
      "name": "approve",
      "outputs": [],
      "stateMutability": "nonpayable",
      "type": "function"
    },
    {
      "inputs": [
        {
          "internalType": "address",
          "name": "owner",
          "type": "address"
        }
      ],
      "name": "balanceOf",
      "outputs": [
        {
          "internalType": "uint256",
          "name": "",
          "type": "uint256"
        }
      ],
      "stateMutability": "view",
      "type": "function"
    },
    {
      "inputs": [
        {
          "internalType": "string",
          "name": "_firstName",
          "type": "string"
        },
        {
          "internalType": "string",
          "name": "_lastName",
          "type": "string"
        },
        {
          "internalType": "uint256",
          "name": "_dateOfBirth",
          "type": "uint256"
        },
        {
          "internalType": "string",
          "name": "_fatherName",
          "type": "string"
        },
        {
          "internalType": "string",
          "name": "_motherName",
          "type": "string"
        },
        {
          "internalType": "string",
          "name": "_placeOfBirth",
          "type": "string"
        },
        {
          "internalType": "string",
          "name": "_gender",
          "type": "string"
        },
        {
          "internalType": "string",
          "name": "_socialStatus",
          "type": "string"
        },
        {
          "internalType": "string",
          "name": "_city",
          "type": "string"
        },
        {
          "internalType": "address",
          "name": "_assignTo",
          "type": "address"
        }
      ],
      "name": "createIdentity",
      "outputs": [],
      "stateMutability": "nonpayable",
      "type": "function"
    },
    {
      "inputs": [
        {
          "internalType": "uint256",
          "name": "tokenId",
          "type": "uint256"
        }
      ],
      "name": "getApproved",
      "outputs": [
        {
          "internalType": "address",
          "name": "",
          "type": "address"
        }
      ],
      "stateMutability": "view",
      "type": "function"
    },
    {
      "inputs": [
        {
          "internalType": "uint256",
          "name": "_tokenId",
          "type": "uint256"
        }
      ],
      "name": "getIdentity",
      "outputs": [
        {
          "internalType": "string",
          "name": "",
          "type": "string"
        },
        {
          "internalType": "string",
          "name": "",
          "type": "string"
        },
        {
          "internalType": "uint256",
          "name": "",
          "type": "uint256"
        },
        {
          "internalType": "string",
          "name": "",
          "type": "string"
        },
        {
          "internalType": "string",
          "name": "",
          "type": "string"
        },
        {
          "internalType": "string",
          "name": "",
          "type": "string"
        },
        {
          "internalType": "string",
          "name": "",
          "type": "string"
        },
        {
          "internalType": "string",
          "name": "",
          "type": "string"
        },
        {
          "internalType": "string",
          "name": "",
          "type": "string"
        }
      ],
      "stateMutability": "view",
      "type": "function"
    },
    {
      "inputs": [],
      "name": "getMyIdentity",
      "outputs": [
        {
          "internalType": "string",
          "name": "",
          "type": "string"
        },
        {
          "internalType": "string",
          "name": "",
          "type": "string"
        },
        {
          "internalType": "uint256",
          "name": "",
          "type": "uint256"
        },
        {
          "internalType": "string",
          "name": "",
          "type": "string"
        },
        {
          "internalType": "string",
          "name": "",
          "type": "string"
        },
        {
          "internalType": "string",
          "name": "",
          "type": "string"
        },
        {
          "internalType": "string",
          "name": "",
          "type": "string"
        },
        {
          "internalType": "string",
          "name": "",
          "type": "string"
        },
        {
          "internalType": "string",
          "name": "",
          "type": "string"
        }
      ],
      "stateMutability": "view",
      "type": "function"
    },
    {
      "inputs": [
        {
          "internalType": "uint256",
          "name": "_tokenId",
          "type": "uint256"
        }
      ],
      "name": "isAdult",
      "outputs": [
        {
          "internalType": "bool",
          "name": "",
          "type": "bool"
        }
      ],
      "stateMutability": "view",
      "type": "function"
    },
    {
      "inputs": [
        {
          "internalType": "address",
          "name": "owner",
          "type": "address"
        },
        {
          "internalType": "address",
          "name": "operator",
          "type": "address"
        }
      ],
      "name": "isApprovedForAll",
      "outputs": [
        {
          "internalType": "bool",
          "name": "",
          "type": "bool"
        }
      ],
      "stateMutability": "view",
      "type": "function"
    },
    {
      "inputs": [],
      "name": "name",
      "outputs": [
        {
          "internalType": "string",
          "name": "",
          "type": "string"
        }
      ],
      "stateMutability": "view",
      "type": "function"
    },
    {
      "inputs": [],
      "name": "owner",
      "outputs": [
        {
          "internalType": "address",
          "name": "",
          "type": "address"
        }
      ],
      "stateMutability": "view",
      "type": "function"
    },
    {
      "inputs": [
        {
          "internalType": "uint256",
          "name": "tokenId",
          "type": "uint256"
        }
      ],
      "name": "ownerOf",
      "outputs": [
        {
          "internalType": "address",
          "name": "",
          "type": "address"
        }
      ],
      "stateMutability": "view",
      "type": "function"
    },
    {
      "inputs": [],
      "name": "renounceOwnership",
      "outputs": [],
      "stateMutability": "nonpayable",
      "type": "function"
    },
    {
      "inputs": [
        {
          "internalType": "address",
          "name": "from",
          "type": "address"
        },
        {
          "internalType": "address",
          "name": "to",
          "type": "address"
        },
        {
          "internalType": "uint256",
          "name": "tokenId",
          "type": "uint256"
        }
      ],
      "name": "safeTransferFrom",
      "outputs": [],
      "stateMutability": "nonpayable",
      "type": "function"
    },
    {
      "inputs": [
        {
          "internalType": "address",
          "name": "from",
          "type": "address"
        },
        {
          "internalType": "address",
          "name": "to",
          "type": "address"
        },
        {
          "internalType": "uint256",
          "name": "tokenId",
          "type": "uint256"
        },
        {
          "internalType": "bytes",
          "name": "data",
          "type": "bytes"
        }
      ],
      "name": "safeTransferFrom",
      "outputs": [],
      "stateMutability": "nonpayable",
      "type": "function"
    },
    {
      "inputs": [
        {
          "internalType": "address",
          "name": "operator",
          "type": "address"
        },
        {
          "internalType": "bool",
          "name": "approved",
          "type": "bool"
        }
      ],
      "name": "setApprovalForAll",
      "outputs": [],
      "stateMutability": "nonpayable",
      "type": "function"
    },
    {
      "inputs": [
        {
          "internalType": "bytes4",
          "name": "interfaceId",
          "type": "bytes4"
        }
      ],
      "name": "supportsInterface",
      "outputs": [
        {
          "internalType": "bool",
          "name": "",
          "type": "bool"
        }
      ],
      "stateMutability": "view",
      "type": "function"
    },
    {
      "inputs": [],
      "name": "symbol",
      "outputs": [
        {
          "internalType": "string",
          "name": "",
          "type": "string"
        }
      ],
      "stateMutability": "view",
      "type": "function"
    },
    {
      "inputs": [
        {
          "internalType": "uint256",
          "name": "index",
          "type": "uint256"
        }
      ],
      "name": "tokenByIndex",
      "outputs": [
        {
          "internalType": "uint256",
          "name": "",
          "type": "uint256"
        }
      ],
      "stateMutability": "view",
      "type": "function"
    },
    {
      "inputs": [
        {
          "internalType": "address",
          "name": "owner",
          "type": "address"
        },
        {
          "internalType": "uint256",
          "name": "index",
          "type": "uint256"
        }
      ],
      "name": "tokenOfOwnerByIndex",
      "outputs": [
        {
          "internalType": "uint256",
          "name": "",
          "type": "uint256"
        }
      ],
      "stateMutability": "view",
      "type": "function"
    },
    {
      "inputs": [
        {
          "internalType": "uint256",
          "name": "tokenId",
          "type": "uint256"
        }
      ],
      "name": "tokenURI",
      "outputs": [
        {
          "internalType": "string",
          "name": "",
          "type": "string"
        }
      ],
      "stateMutability": "view",
      "type": "function"
    },
    {
      "inputs": [],
      "name": "totalSupply",
      "outputs": [
        {
          "internalType": "uint256",
          "name": "",
          "type": "uint256"
        }
      ],
      "stateMutability": "view",
      "type": "function"
    },
    {
      "inputs": [
        {
          "internalType": "address",
          "name": "from",
          "type": "address"
        },
        {
          "internalType": "address",
          "name": "to",
          "type": "address"
        },
        {
          "internalType": "uint256",
          "name": "tokenId",
          "type": "uint256"
        }
      ],
      "name": "transferFrom",
      "outputs": [],
      "stateMutability": "nonpayable",
      "type": "function"
    },
    {
      "inputs": [
        {
          "internalType": "address",
          "name": "newOwner",
          "type": "address"
        }
      ],
      "name": "transferOwnership",
      "outputs": [],
      "stateMutability": "nonpayable",
      "type": "function"
    },
    {
      "inputs": [
        {
          "internalType": "uint256",
          "name": "_tokenId",
          "type": "uint256"
        },
        {
          "internalType": "string",
          "name": "_firstName",
          "type": "string"
        },
        {
          "internalType": "string",
          "name": "_lastName",
          "type": "string"
        },
        {
          "internalType": "uint256",
          "name": "_dateOfBirth",
          "type": "uint256"
        },
        {
          "internalType": "string",
          "name": "_fatherName",
          "type": "string"
        },
        {
          "internalType": "string",
          "name": "_motherName",
          "type": "string"
        },
        {
          "internalType": "string",
          "name": "_placeOfBirth",
          "type": "string"
        },
        {
          "internalType": "string",
          "name": "_gender",
          "type": "string"
        },
        {
          "internalType": "string",
          "name": "_socialStatus",
          "type": "string"
        },
        {
          "internalType": "string",
          "name": "_city",
          "type": "string"
        }
      ],
      "name": "updateIdentity",
      "outputs": [],
      "stateMutability": "nonpayable",
      "type": "function"
    }
  ],
  "bytecode": "0x60806040523480156200001157600080fd5b50604051620052d8380380620052d88339818101604052810190620000379190620003b8565b81818160009080519060200190620000519291906200016b565b5080600190805190602001906200006a9291906200016b565b5050506200008d620000816200009d60201b60201c565b620000a560201b60201c565b6000600d819055505050620004a2565b600033905090565b6000600a60009054906101000a900473ffffffffffffffffffffffffffffffffffffffff16905081600a60006101000a81548173ffffffffffffffffffffffffffffffffffffffff021916908373ffffffffffffffffffffffffffffffffffffffff1602179055508173ffffffffffffffffffffffffffffffffffffffff168173ffffffffffffffffffffffffffffffffffffffff167f8be0079c531659141344cd1fd0a4f28419497f9722a3daafe3b4186f6b6457e060405160405180910390a35050565b82805462000179906200046c565b90600052602060002090601f0160209004810192826200019d5760008555620001e9565b82601f10620001b857805160ff1916838001178555620001e9565b82800160010185558215620001e9579182015b82811115620001e8578251825591602001919060010190620001cb565b5b509050620001f89190620001fc565b5090565b5b8082111562000217576000816000905550600101620001fd565b5090565b6000604051905090565b600080fd5b600080fd5b600080fd5b600080fd5b6000601f19601f8301169050919050565b7f4e487b7100000000000000000000000000000000000000000000000000000000600052604160045260246000fd5b620002848262000239565b810181811067ffffffffffffffff82111715620002a657620002a56200024a565b5b80604052505050565b6000620002bb6200021b565b9050620002c9828262000279565b919050565b600067ffffffffffffffff821115620002ec57620002eb6200024a565b5b620002f78262000239565b9050602081019050919050565b60005b838110156200032457808201518184015260208101905062000307565b8381111562000334576000848401525b50505050565b6000620003516200034b84620002ce565b620002af565b90508281526020810184848401111562000370576200036f62000234565b5b6200037d84828562000304565b509392505050565b600082601f8301126200039d576200039c6200022f565b5b8151620003af8482602086016200033a565b91505092915050565b60008060408385031215620003d257620003d162000225565b5b600083015167ffffffffffffffff811115620003f357620003f26200022a565b5b620004018582860162000385565b925050602083015167ffffffffffffffff8111156200042557620004246200022a565b5b620004338582860162000385565b9150509250929050565b7f4e487b7100000000000000000000000000000000000000000000000000000000600052602260045260246000fd5b600060028204905060018216806200048557607f821691505b602082108114156200049c576200049b6200043d565b5b50919050565b614e2680620004b26000396000f3fe608060405234801561001057600080fd5b50600436106101585760003560e01c806370a08231116100c3578063b88d4fde1161007c578063b88d4fde146103f3578063b9d696471461040f578063c87b56dd14610435578063caf2427a14610465578063e985e9c514610481578063f2fde38b146104b157610158565b806370a0823114610329578063715018a61461035957806385e3f058146103635780638da5cb5b1461039b57806395d89b41146103b9578063a22cb465146103d757610158565b80632f745c59116101155780632f745c59146102315780633e4e9ac21461026157806342842e0e1461027d5780634f6ccce7146102995780635d9d28e5146102c95780636352211e146102f957610158565b806301ffc9a71461015d57806306fdde031461018d578063081812fc146101ab578063095ea7b3146101db57806318160ddd146101f757806323b872dd14610215575b600080fd5b610177600480360381019061017291906134e5565b6104cd565b604051610184919061352d565b60405180910390f35b6101956104df565b6040516101a291906135e1565b60405180910390f35b6101c560048036038101906101c09190613639565b610571565b6040516101d291906136a7565b60405180910390f35b6101f560048036038101906101f091906136ee565b6105b7565b005b6101ff6106cf565b60405161020c919061373d565b60405180910390f35b61022f600480360381019061022a9190613758565b6106dc565b005b61024b600480360381019061024691906136ee565b61073c565b604051610258919061373d565b60405180910390f35b61027b600480360381019061027691906138e0565b6107e1565b005b61029760048036038101906102929190613758565b610b43565b005b6102b360048036038101906102ae9190613639565b610b63565b6040516102c0919061373d565b60405180910390f35b6102e360048036038101906102de9190613639565b610bd4565b6040516102f0919061352d565b60405180910390f35b610313600480360381019061030e9190613639565b6110fa565b60405161032091906136a7565b60405180910390f35b610343600480360381019061033e9190613a9f565b611181565b604051610350919061373d565b60405180910390f35b610361611239565b005b61037d60048036038101906103789190613639565b61124d565b60405161039299989796959493929190613acc565b60405180910390f35b6103a3611826565b6040516103b091906136a7565b60405180910390f35b6103c1611850565b6040516103ce91906135e1565b60405180910390f35b6103f160048036038101906103ec9190613bbd565b6118e2565b005b61040d60048036038101906104089190613c9e565b6118f8565b005b61041761195a565b60405161042c99989796959493929190613acc565b60405180910390f35b61044f600480360381019061044a9190613639565b611aa5565b60405161045c91906135e1565b60405180910390f35b61047f600480360381019061047a9190613d21565b611b0d565b005b61049b60048036038101906104969190613ee0565b611d1d565b6040516104a8919061352d565b60405180910390f35b6104cb60048036038101906104c69190613a9f565b611db1565b005b60006104d882611e35565b9050919050565b6060600080546104ee90613f4f565b80601f016020809104026020016040519081016040528092919081815260200182805461051a90613f4f565b80156105675780601f1061053c57610100808354040283529160200191610567565b820191906000526020600020905b81548152906001019060200180831161054a57829003601f168201915b5050505050905090565b600061057c82611eaf565b6004600083815260200190815260200160002060009054906101000a900473ffffffffffffffffffffffffffffffffffffffff169050919050565b60006105c2826110fa565b90508073ffffffffffffffffffffffffffffffffffffffff168373ffffffffffffffffffffffffffffffffffffffff161415610633576040517f08c379a000000000000000000000000000000000000000000000000000000000815260040161062a90613ff3565b60405180910390fd5b8073ffffffffffffffffffffffffffffffffffffffff16610652611efa565b73ffffffffffffffffffffffffffffffffffffffff16148061068157506106808161067b611efa565b611d1d565b5b6106c0576040517f08c379a00000000000000000000000000000000000000000000000000000000081526004016106b790614085565b60405180910390fd5b6106ca8383611f02565b505050565b6000600880549050905090565b6106ed6106e7611efa565b82611fbb565b61072c576040517f08c379a000000000000000000000000000000000000000000000000000000000815260040161072390614117565b60405180910390fd5b610737838383612050565b505050565b600061074783611181565b8210610788576040517f08c379a000000000000000000000000000000000000000000000000000000000815260040161077f906141a9565b60405180910390fd5b600660008473ffffffffffffffffffffffffffffffffffffffff1673ffffffffffffffffffffffffffffffffffffffff168152602001908152602001600020600083815260200190815260200160002054905092915050565b6107e961234a565b60016107f36106cf565b10610833576040517f08c379a000000000000000000000000000000000000000000000000000000000815260040161082a90614215565b60405180910390fd5b60008a5111610877576040517f08c379a000000000000000000000000000000000000000000000000000000000815260040161086e90614281565b60405180910390fd5b60008951116108bb576040517f08c379a00000000000000000000000000000000000000000000000000000000081526004016108b2906142ed565b60405180910390fd5b600088116108fe576040517f08c379a00000000000000000000000000000000000000000000000000000000081526004016108f590614359565b60405180910390fd5b600073ffffffffffffffffffffffffffffffffffffffff168173ffffffffffffffffffffffffffffffffffffffff16141561096e576040517f08c379a0000000000000000000000000000000000000000000000000000000008152600401610965906143c5565b60405180910390fd5b60006040518061012001604052808c81526020018b81526020018a815260200189815260200188815260200187815260200186815260200185815260200184815250905080600b6000600d54815260200190815260200160002060008201518160000190805190602001906109e49291906133d6565b506020820151816001019080519060200190610a019291906133d6565b50604082015181600201556060820151816003019080519060200190610a289291906133d6565b506080820151816004019080519060200190610a459291906133d6565b5060a0820151816005019080519060200190610a629291906133d6565b5060c0820151816006019080519060200190610a7f9291906133d6565b5060e0820151816007019080519060200190610a9c9291906133d6565b50610100820151816008019080519060200190610aba9291906133d6565b50905050610aca82600d546123c8565b81600c6000600d54815260200190815260200160002060006101000a81548173ffffffffffffffffffffffffffffffffffffffff021916908373ffffffffffffffffffffffffffffffffffffffff160217905550600d6000815480929190610b3190614414565b91905055505050505050505050505050565b610b5e838383604051806020016040528060008152506118f8565b505050565b6000610b6d6106cf565b8210610bae576040517f08c379a0000000000000000000000000000000000000000000000000000000008152600401610ba5906144cf565b60405180910390fd5b60088281548110610bc257610bc16144ef565b5b90600052602060002001549050919050565b6000610bdf826123e6565b610c1e576040517f08c379a0000000000000000000000000000000000000000000000000000000008152600401610c159061456a565b60405180910390fd5b6000600b600084815260200190815260200160002060405180610120016040529081600082018054610c4f90613f4f565b80601f0160208091040260200160405190810160405280929190818152602001828054610c7b90613f4f565b8015610cc85780601f10610c9d57610100808354040283529160200191610cc8565b820191906000526020600020905b815481529060010190602001808311610cab57829003601f168201915b50505050508152602001600182018054610ce190613f4f565b80601f0160208091040260200160405190810160405280929190818152602001828054610d0d90613f4f565b8015610d5a5780601f10610d2f57610100808354040283529160200191610d5a565b820191906000526020600020905b815481529060010190602001808311610d3d57829003601f168201915b5050505050815260200160028201548152602001600382018054610d7d90613f4f565b80601f0160208091040260200160405190810160405280929190818152602001828054610da990613f4f565b8015610df65780601f10610dcb57610100808354040283529160200191610df6565b820191906000526020600020905b815481529060010190602001808311610dd957829003601f168201915b50505050508152602001600482018054610e0f90613f4f565b80601f0160208091040260200160405190810160405280929190818152602001828054610e3b90613f4f565b8015610e885780601f10610e5d57610100808354040283529160200191610e88565b820191906000526020600020905b815481529060010190602001808311610e6b57829003601f168201915b50505050508152602001600582018054610ea190613f4f565b80601f0160208091040260200160405190810160405280929190818152602001828054610ecd90613f4f565b8015610f1a5780601f10610eef57610100808354040283529160200191610f1a565b820191906000526020600020905b815481529060010190602001808311610efd57829003601f168201915b50505050508152602001600682018054610f3390613f4f565b80601f0160208091040260200160405190810160405280929190818152602001828054610f5f90613f4f565b8015610fac5780601f10610f8157610100808354040283529160200191610fac565b820191906000526020600020905b815481529060010190602001808311610f8f57829003601f168201915b50505050508152602001600782018054610fc590613f4f565b80601f0160208091040260200160405190810160405280929190818152602001828054610ff190613f4f565b801561103e5780601f106110135761010080835404028352916020019161103e565b820191906000526020600020905b81548152906001019060200180831161102157829003601f168201915b5050505050815260200160088201805461105790613f4f565b80601f016020809104026020016040519081016040528092919081815260200182805461108390613f4f565b80156110d05780601f106110a5576101008083540402835291602001916110d0565b820191906000526020600020905b8154815290600101906020018083116110b357829003601f168201915b505050505081525050905060006110ea8260400151612427565b9050601281101592505050919050565b60008061110683612456565b9050600073ffffffffffffffffffffffffffffffffffffffff168173ffffffffffffffffffffffffffffffffffffffff161415611178576040517f08c379a000000000000000000000000000000000000000000000000000000000815260040161116f906145d6565b60405180910390fd5b80915050919050565b60008073ffffffffffffffffffffffffffffffffffffffff168273ffffffffffffffffffffffffffffffffffffffff1614156111f2576040517f08c379a00000000000000000000000000000000000000000000000000000000081526004016111e990614668565b60405180910390fd5b600360008373ffffffffffffffffffffffffffffffffffffffff1673ffffffffffffffffffffffffffffffffffffffff168152602001908152602001600020549050919050565b61124161234a565b61124b6000612493565b565b6060806000606080606080606080893373ffffffffffffffffffffffffffffffffffffffff1661127c826110fa565b73ffffffffffffffffffffffffffffffffffffffff16146112d2576040517f08c379a00000000000000000000000000000000000000000000000000000000081526004016112c9906146d4565b60405180910390fd5b6112db8b6123e6565b61131a576040517f08c379a00000000000000000000000000000000000000000000000000000000081526004016113119061456a565b60405180910390fd5b6000600b60008d81526020019081526020016000206040518061012001604052908160008201805461134b90613f4f565b80601f016020809104026020016040519081016040528092919081815260200182805461137790613f4f565b80156113c45780601f10611399576101008083540402835291602001916113c4565b820191906000526020600020905b8154815290600101906020018083116113a757829003601f168201915b505050505081526020016001820180546113dd90613f4f565b80601f016020809104026020016040519081016040528092919081815260200182805461140990613f4f565b80156114565780601f1061142b57610100808354040283529160200191611456565b820191906000526020600020905b81548152906001019060200180831161143957829003601f168201915b505050505081526020016002820154815260200160038201805461147990613f4f565b80601f01602080910402602001604051908101604052809291908181526020018280546114a590613f4f565b80156114f25780601f106114c7576101008083540402835291602001916114f2565b820191906000526020600020905b8154815290600101906020018083116114d557829003601f168201915b5050505050815260200160048201805461150b90613f4f565b80601f016020809104026020016040519081016040528092919081815260200182805461153790613f4f565b80156115845780601f1061155957610100808354040283529160200191611584565b820191906000526020600020905b81548152906001019060200180831161156757829003601f168201915b5050505050815260200160058201805461159d90613f4f565b80601f01602080910402602001604051908101604052809291908181526020018280546115c990613f4f565b80156116165780601f106115eb57610100808354040283529160200191611616565b820191906000526020600020905b8154815290600101906020018083116115f957829003601f168201915b5050505050815260200160068201805461162f90613f4f565b80601f016020809104026020016040519081016040528092919081815260200182805461165b90613f4f565b80156116a85780601f1061167d576101008083540402835291602001916116a8565b820191906000526020600020905b81548152906001019060200180831161168b57829003601f168201915b505050505081526020016007820180546116c190613f4f565b80601f01602080910402602001604051908101604052809291908181526020018280546116ed90613f4f565b801561173a5780601f1061170f5761010080835404028352916020019161173a565b820191906000526020600020905b81548152906001019060200180831161171d57829003601f168201915b5050505050815260200160088201805461175390613f4f565b80601f016020809104026020016040519081016040528092919081815260200182805461177f90613f4f565b80156117cc5780601f106117a1576101008083540402835291602001916117cc565b820191906000526020600020905b8154815290600101906020018083116117af57829003601f168201915b5050505050815250509050806000015181602001518260400151836060015184608001518560a001518660c001518760e001518861010001519a509a509a509a509a509a509a509a509a5050509193959799909294969850565b6000600a60009054906101000a900473ffffffffffffffffffffffffffffffffffffffff16905090565b60606001805461185f90613f4f565b80601f016020809104026020016040519081016040528092919081815260200182805461188b90613f4f565b80156118d85780601f106118ad576101008083540402835291602001916118d8565b820191906000526020600020905b8154815290600101906020018083116118bb57829003601f168201915b5050505050905090565b6118f46118ed611efa565b8383612559565b5050565b611909611903611efa565b83611fbb565b611948576040517f08c379a000000000000000000000000000000000000000000000000000000000815260040161193f90614117565b60405180910390fd5b611954848484846126c6565b50505050565b606080600060608060608060608060006119726106cf565b905060005b81811015611a0157611988816123e6565b80156119c757503373ffffffffffffffffffffffffffffffffffffffff166119af826110fa565b73ffffffffffffffffffffffffffffffffffffffff16145b156119ee576119d58161124d565b9a509a509a509a509a509a509a509a509a505050611a9a565b80806119f990614414565b915050611977565b50600060405180602001604052806000815250906040518060200160405280600081525090604051806020016040528060008152506040518060200160405280600081525060405180602001604052806000815250604051806020016040528060008152506040518060200160405280600081525060405180602001604052806000815250995099509950995099509950995099509950505b909192939495969798565b6060611ab082611eaf565b6000611aba612722565b90506000815111611ada5760405180602001604052806000815250611b05565b80611ae484612739565b604051602001611af5929190614730565b6040516020818303038152906040525b915050919050565b611b1561234a565b6000895111611b59576040517f08c379a0000000000000000000000000000000000000000000000000000000008152600401611b5090614281565b60405180910390fd5b6000885111611b9d576040517f08c379a0000000000000000000000000000000000000000000000000000000008152600401611b94906142ed565b60405180910390fd5b60008711611be0576040517f08c379a0000000000000000000000000000000000000000000000000000000008152600401611bd790614359565b60405180910390fd5b611be98a6123e6565b611c28576040517f08c379a0000000000000000000000000000000000000000000000000000000008152600401611c1f9061456a565b60405180910390fd5b6000600b60008c8152602001908152602001600020905089816000019080519060200190611c579291906133d6565b5088816001019080519060200190611c709291906133d6565b5087816002018190555086816003019080519060200190611c929291906133d6565b5085816004019080519060200190611cab9291906133d6565b5084816005019080519060200190611cc49291906133d6565b5083816006019080519060200190611cdd9291906133d6565b5082816007019080519060200190611cf69291906133d6565b5081816008019080519060200190611d0f9291906133d6565b505050505050505050505050565b6000600560008473ffffffffffffffffffffffffffffffffffffffff1673ffffffffffffffffffffffffffffffffffffffff16815260200190815260200160002060008373ffffffffffffffffffffffffffffffffffffffff1673ffffffffffffffffffffffffffffffffffffffff16815260200190815260200160002060009054906101000a900460ff16905092915050565b611db961234a565b600073ffffffffffffffffffffffffffffffffffffffff168173ffffffffffffffffffffffffffffffffffffffff161415611e29576040517f08c379a0000000000000000000000000000000000000000000000000000000008152600401611e20906147c6565b60405180910390fd5b611e3281612493565b50565b60007f780e9d63000000000000000000000000000000000000000000000000000000007bffffffffffffffffffffffffffffffffffffffffffffffffffffffff1916827bffffffffffffffffffffffffffffffffffffffffffffffffffffffff19161480611ea85750611ea782612811565b5b9050919050565b611eb8816123e6565b611ef7576040517f08c379a0000000000000000000000000000000000000000000000000000000008152600401611eee906145d6565b60405180910390fd5b50565b600033905090565b816004600083815260200190815260200160002060006101000a81548173ffffffffffffffffffffffffffffffffffffffff021916908373ffffffffffffffffffffffffffffffffffffffff160217905550808273ffffffffffffffffffffffffffffffffffffffff16611f75836110fa565b73ffffffffffffffffffffffffffffffffffffffff167f8c5be1e5ebec7d5bd14f71427d1e84f3dd0314c0f7b2291e5b200ac8c7c3b92560405160405180910390a45050565b600080611fc7836110fa565b90508073ffffffffffffffffffffffffffffffffffffffff168473ffffffffffffffffffffffffffffffffffffffff16148061200957506120088185611d1d565b5b8061204757508373ffffffffffffffffffffffffffffffffffffffff1661202f84610571565b73ffffffffffffffffffffffffffffffffffffffff16145b91505092915050565b8273ffffffffffffffffffffffffffffffffffffffff16612070826110fa565b73ffffffffffffffffffffffffffffffffffffffff16146120c6576040517f08c379a00000000000000000000000000000000000000000000000000000000081526004016120bd90614858565b60405180910390fd5b600073ffffffffffffffffffffffffffffffffffffffff168273ffffffffffffffffffffffffffffffffffffffff161415612136576040517f08c379a000000000000000000000000000000000000000000000000000000000815260040161212d906148ea565b60405180910390fd5b61214383838360016128f3565b8273ffffffffffffffffffffffffffffffffffffffff16612163826110fa565b73ffffffffffffffffffffffffffffffffffffffff16146121b9576040517f08c379a00000000000000000000000000000000000000000000000000000000081526004016121b090614858565b60405180910390fd5b6004600082815260200190815260200160002060006101000a81549073ffffffffffffffffffffffffffffffffffffffff02191690556001600360008573ffffffffffffffffffffffffffffffffffffffff1673ffffffffffffffffffffffffffffffffffffffff168152602001908152602001600020600082825403925050819055506001600360008473ffffffffffffffffffffffffffffffffffffffff1673ffffffffffffffffffffffffffffffffffffffff16815260200190815260200160002060008282540192505081905550816002600083815260200190815260200160002060006101000a81548173ffffffffffffffffffffffffffffffffffffffff021916908373ffffffffffffffffffffffffffffffffffffffff160217905550808273ffffffffffffffffffffffffffffffffffffffff168473ffffffffffffffffffffffffffffffffffffffff167fddf252ad1be2c89b69c2b068fc378daa952ba7f163c4a11628f55a4df523b3ef60405160405180910390a46123458383836001612974565b505050565b612352611efa565b73ffffffffffffffffffffffffffffffffffffffff16612370611826565b73ffffffffffffffffffffffffffffffffffffffff16146123c6576040517f08c379a00000000000000000000000000000000000000000000000000000000081526004016123bd90614956565b60405180910390fd5b565b6123e282826040518060200160405280600081525061297a565b5050565b60008073ffffffffffffffffffffffffffffffffffffffff1661240883612456565b73ffffffffffffffffffffffffffffffffffffffff1614159050919050565b60008042905060006301e1338084836124409190614976565b61244a91906149d9565b90508092505050919050565b60006002600083815260200190815260200160002060009054906101000a900473ffffffffffffffffffffffffffffffffffffffff169050919050565b6000600a60009054906101000a900473ffffffffffffffffffffffffffffffffffffffff16905081600a60006101000a81548173ffffffffffffffffffffffffffffffffffffffff021916908373ffffffffffffffffffffffffffffffffffffffff1602179055508173ffffffffffffffffffffffffffffffffffffffff168173ffffffffffffffffffffffffffffffffffffffff167f8be0079c531659141344cd1fd0a4f28419497f9722a3daafe3b4186f6b6457e060405160405180910390a35050565b8173ffffffffffffffffffffffffffffffffffffffff168373ffffffffffffffffffffffffffffffffffffffff1614156125c8576040517f08c379a00000000000000000000000000000000000000000000000000000000081526004016125bf90614a56565b60405180910390fd5b80600560008573ffffffffffffffffffffffffffffffffffffffff1673ffffffffffffffffffffffffffffffffffffffff16815260200190815260200160002060008473ffffffffffffffffffffffffffffffffffffffff1673ffffffffffffffffffffffffffffffffffffffff16815260200190815260200160002060006101000a81548160ff0219169083151502179055508173ffffffffffffffffffffffffffffffffffffffff168373ffffffffffffffffffffffffffffffffffffffff167f17307eab39ab6107e8899845ad3d59bd9653f200f220920489ca2b5937696c31836040516126b9919061352d565b60405180910390a3505050565b6126d1848484612050565b6126dd848484846129d5565b61271c576040517f08c379a000000000000000000000000000000000000000000000000000000000815260040161271390614ae8565b60405180910390fd5b50505050565b606060405180602001604052806000815250905090565b60606000600161274884612b6c565b01905060008167ffffffffffffffff811115612767576127666137b5565b5b6040519080825280601f01601f1916602001820160405280156127995781602001600182028036833780820191505090505b509050600082602001820190505b600115612806578080600190039150507f3031323334353637383961626364656600000000000000000000000000000000600a86061a8153600a85816127f0576127ef6149aa565b5b049450600085141561280157612806565b6127a7565b819350505050919050565b60007f80ac58cd000000000000000000000000000000000000000000000000000000007bffffffffffffffffffffffffffffffffffffffffffffffffffffffff1916827bffffffffffffffffffffffffffffffffffffffffffffffffffffffff191614806128dc57507f5b5e139f000000000000000000000000000000000000000000000000000000007bffffffffffffffffffffffffffffffffffffffffffffffffffffffff1916827bffffffffffffffffffffffffffffffffffffffffffffffffffffffff1916145b806128ec57506128eb82612cbf565b5b9050919050565b600073ffffffffffffffffffffffffffffffffffffffff168473ffffffffffffffffffffffffffffffffffffffff1614612962576040517f08c379a000000000000000000000000000000000000000000000000000000000815260040161295990614b54565b60405180910390fd5b61296e84848484612d29565b50505050565b50505050565b6129848383612e89565b61299160008484846129d5565b6129d0576040517f08c379a00000000000000000000000000000000000000000000000000000000081526004016129c790614ae8565b60405180910390fd5b505050565b60006129f68473ffffffffffffffffffffffffffffffffffffffff166130a7565b15612b5f578373ffffffffffffffffffffffffffffffffffffffff1663150b7a02612a1f611efa565b8786866040518563ffffffff1660e01b8152600401612a419493929190614bc9565b602060405180830381600087803b158015612a5b57600080fd5b505af1925050508015612a8c57506040513d601f19601f82011682018060405250810190612a899190614c2a565b60015b612b0f573d8060008114612abc576040519150601f19603f3d011682016040523d82523d6000602084013e612ac1565b606091505b50600081511415612b07576040517f08c379a0000000000000000000000000000000000000000000000000000000008152600401612afe90614ae8565b60405180910390fd5b805181602001fd5b63150b7a0260e01b7bffffffffffffffffffffffffffffffffffffffffffffffffffffffff1916817bffffffffffffffffffffffffffffffffffffffffffffffffffffffff191614915050612b64565b600190505b949350505050565b600080600090507a184f03e93ff9f4daa797ed6e38ed64bf6a1f0100000000000000008310612bca577a184f03e93ff9f4daa797ed6e38ed64bf6a1f0100000000000000008381612bc057612bbf6149aa565b5b0492506040810190505b6d04ee2d6d415b85acef81000000008310612c07576d04ee2d6d415b85acef81000000008381612bfd57612bfc6149aa565b5b0492506020810190505b662386f26fc100008310612c3657662386f26fc100008381612c2c57612c2b6149aa565b5b0492506010810190505b6305f5e1008310612c5f576305f5e1008381612c5557612c546149aa565b5b0492506008810190505b6127108310612c84576127108381612c7a57612c796149aa565b5b0492506004810190505b60648310612ca75760648381612c9d57612c9c6149aa565b5b0492506002810190505b600a8310612cb6576001810190505b80915050919050565b60007f01ffc9a7000000000000000000000000000000000000000000000000000000007bffffffffffffffffffffffffffffffffffffffffffffffffffffffff1916827bffffffffffffffffffffffffffffffffffffffffffffffffffffffff1916149050919050565b612d35848484846130ca565b6001811115612d79576040517f08c379a0000000000000000000000000000000000000000000000000000000008152600401612d7090614cc9565b60405180910390fd5b6000829050600073ffffffffffffffffffffffffffffffffffffffff168573ffffffffffffffffffffffffffffffffffffffff161415612dc157612dbc816130d0565b612e00565b8373ffffffffffffffffffffffffffffffffffffffff168573ffffffffffffffffffffffffffffffffffffffff1614612dff57612dfe8582613119565b5b5b600073ffffffffffffffffffffffffffffffffffffffff168473ffffffffffffffffffffffffffffffffffffffff161415612e4357612e3e81613286565b612e82565b8473ffffffffffffffffffffffffffffffffffffffff168473ffffffffffffffffffffffffffffffffffffffff1614612e8157612e808482613357565b5b5b5050505050565b600073ffffffffffffffffffffffffffffffffffffffff168273ffffffffffffffffffffffffffffffffffffffff161415612ef9576040517f08c379a0000000000000000000000000000000000000000000000000000000008152600401612ef090614d35565b60405180910390fd5b612f02816123e6565b15612f42576040517f08c379a0000000000000000000000000000000000000000000000000000000008152600401612f3990614da1565b60405180910390fd5b612f506000838360016128f3565b612f59816123e6565b15612f99576040517f08c379a0000000000000000000000000000000000000000000000000000000008152600401612f9090614da1565b60405180910390fd5b6001600360008473ffffffffffffffffffffffffffffffffffffffff1673ffffffffffffffffffffffffffffffffffffffff16815260200190815260200160002060008282540192505081905550816002600083815260200190815260200160002060006101000a81548173ffffffffffffffffffffffffffffffffffffffff021916908373ffffffffffffffffffffffffffffffffffffffff160217905550808273ffffffffffffffffffffffffffffffffffffffff16600073ffffffffffffffffffffffffffffffffffffffff167fddf252ad1be2c89b69c2b068fc378daa952ba7f163c4a11628f55a4df523b3ef60405160405180910390a46130a3600083836001612974565b5050565b6000808273ffffffffffffffffffffffffffffffffffffffff163b119050919050565b50505050565b6008805490506009600083815260200190815260200160002081905550600881908060018154018082558091505060019003906000526020600020016000909190919091505550565b6000600161312684611181565b6131309190614976565b9050600060076000848152602001908152602001600020549050818114613215576000600660008673ffffffffffffffffffffffffffffffffffffffff1673ffffffffffffffffffffffffffffffffffffffff168152602001908152602001600020600084815260200190815260200160002054905080600660008773ffffffffffffffffffffffffffffffffffffffff1673ffffffffffffffffffffffffffffffffffffffff168152602001908152602001600020600084815260200190815260200160002081905550816007600083815260200190815260200160002081905550505b6007600084815260200190815260200160002060009055600660008573ffffffffffffffffffffffffffffffffffffffff1673ffffffffffffffffffffffffffffffffffffffff16815260200190815260200160002060008381526020019081526020016000206000905550505050565b6000600160088054905061329a9190614976565b90506000600960008481526020019081526020016000205490506000600883815481106132ca576132c96144ef565b5b9060005260206000200154905080600883815481106132ec576132eb6144ef565b5b90600052602060002001819055508160096000838152602001908152602001600020819055506009600085815260200190815260200160002060009055600880548061333b5761333a614dc1565b5b6001900381819060005260206000200160009055905550505050565b600061336283611181565b905081600660008573ffffffffffffffffffffffffffffffffffffffff1673ffffffffffffffffffffffffffffffffffffffff168152602001908152602001600020600083815260200190815260200160002081905550806007600084815260200190815260200160002081905550505050565b8280546133e290613f4f565b90600052602060002090601f016020900481019282613404576000855561344b565b82601f1061341d57805160ff191683800117855561344b565b8280016001018555821561344b579182015b8281111561344a57825182559160200191906001019061342f565b5b509050613458919061345c565b5090565b5b8082111561347557600081600090555060010161345d565b5090565b6000604051905090565b600080fd5b600080fd5b60007fffffffff0000000000000000000000000000000000000000000000000000000082169050919050565b6134c28161348d565b81146134cd57600080fd5b50565b6000813590506134df816134b9565b92915050565b6000602082840312156134fb576134fa613483565b5b6000613509848285016134d0565b91505092915050565b60008115159050919050565b61352781613512565b82525050565b6000602082019050613542600083018461351e565b92915050565b600081519050919050565b600082825260208201905092915050565b60005b83811015613582578082015181840152602081019050613567565b83811115613591576000848401525b50505050565b6000601f19601f8301169050919050565b60006135b382613548565b6135bd8185613553565b93506135cd818560208601613564565b6135d681613597565b840191505092915050565b600060208201905081810360008301526135fb81846135a8565b905092915050565b6000819050919050565b61361681613603565b811461362157600080fd5b50565b6000813590506136338161360d565b92915050565b60006020828403121561364f5761364e613483565b5b600061365d84828501613624565b91505092915050565b600073ffffffffffffffffffffffffffffffffffffffff82169050919050565b600061369182613666565b9050919050565b6136a181613686565b82525050565b60006020820190506136bc6000830184613698565b92915050565b6136cb81613686565b81146136d657600080fd5b50565b6000813590506136e8816136c2565b92915050565b6000806040838503121561370557613704613483565b5b6000613713858286016136d9565b925050602061372485828601613624565b9150509250929050565b61373781613603565b82525050565b6000602082019050613752600083018461372e565b92915050565b60008060006060848603121561377157613770613483565b5b600061377f868287016136d9565b9350506020613790868287016136d9565b92505060406137a186828701613624565b9150509250925092565b600080fd5b600080fd5b7f4e487b7100000000000000000000000000000000000000000000000000000000600052604160045260246000fd5b6137ed82613597565b810181811067ffffffffffffffff8211171561380c5761380b6137b5565b5b80604052505050565b600061381f613479565b905061382b82826137e4565b919050565b600067ffffffffffffffff82111561384b5761384a6137b5565b5b61385482613597565b9050602081019050919050565b82818337600083830152505050565b600061388361387e84613830565b613815565b90508281526020810184848401111561389f5761389e6137b0565b5b6138aa848285613861565b509392505050565b600082601f8301126138c7576138c66137ab565b5b81356138d7848260208601613870565b91505092915050565b6000806000806000806000806000806101408b8d03121561390457613903613483565b5b60008b013567ffffffffffffffff81111561392257613921613488565b5b61392e8d828e016138b2565b9a505060208b013567ffffffffffffffff81111561394f5761394e613488565b5b61395b8d828e016138b2565b995050604061396c8d828e01613624565b98505060608b013567ffffffffffffffff81111561398d5761398c613488565b5b6139998d828e016138b2565b97505060808b013567ffffffffffffffff8111156139ba576139b9613488565b5b6139c68d828e016138b2565b96505060a08b013567ffffffffffffffff8111156139e7576139e6613488565b5b6139f38d828e016138b2565b95505060c08b013567ffffffffffffffff811115613a1457613a13613488565b5b613a208d828e016138b2565b94505060e08b013567ffffffffffffffff811115613a4157613a40613488565b5b613a4d8d828e016138b2565b9350506101008b013567ffffffffffffffff811115613a6f57613a6e613488565b5b613a7b8d828e016138b2565b925050610120613a8d8d828e016136d9565b9150509295989b9194979a5092959850565b600060208284031215613ab557613ab4613483565b5b6000613ac3848285016136d9565b91505092915050565b6000610120820190508181036000830152613ae7818c6135a8565b90508181036020830152613afb818b6135a8565b9050613b0a604083018a61372e565b8181036060830152613b1c81896135a8565b90508181036080830152613b3081886135a8565b905081810360a0830152613b4481876135a8565b905081810360c0830152613b5881866135a8565b905081810360e0830152613b6c81856135a8565b9050818103610100830152613b8181846135a8565b90509a9950505050505050505050565b613b9a81613512565b8114613ba557600080fd5b50565b600081359050613bb781613b91565b92915050565b60008060408385031215613bd457613bd3613483565b5b6000613be2858286016136d9565b9250506020613bf385828601613ba8565b9150509250929050565b600067ffffffffffffffff821115613c1857613c176137b5565b5b613c2182613597565b9050602081019050919050565b6000613c41613c3c84613bfd565b613815565b905082815260208101848484011115613c5d57613c5c6137b0565b5b613c68848285613861565b509392505050565b600082601f830112613c8557613c846137ab565b5b8135613c95848260208601613c2e565b91505092915050565b60008060008060808587031215613cb857613cb7613483565b5b6000613cc6878288016136d9565b9450506020613cd7878288016136d9565b9350506040613ce887828801613624565b925050606085013567ffffffffffffffff811115613d0957613d08613488565b5b613d1587828801613c70565b91505092959194509250565b6000806000806000806000806000806101408b8d031215613d4557613d44613483565b5b6000613d538d828e01613624565b9a505060208b013567ffffffffffffffff811115613d7457613d73613488565b5b613d808d828e016138b2565b99505060408b013567ffffffffffffffff811115613da157613da0613488565b5b613dad8d828e016138b2565b9850506060613dbe8d828e01613624565b97505060808b013567ffffffffffffffff811115613ddf57613dde613488565b5b613deb8d828e016138b2565b96505060a08b013567ffffffffffffffff811115613e0c57613e0b613488565b5b613e188d828e016138b2565b95505060c08b013567ffffffffffffffff811115613e3957613e38613488565b5b613e458d828e016138b2565b94505060e08b013567ffffffffffffffff811115613e6657613e65613488565b5b613e728d828e016138b2565b9350506101008b013567ffffffffffffffff811115613e9457613e93613488565b5b613ea08d828e016138b2565b9250506101208b013567ffffffffffffffff811115613ec257613ec1613488565b5b613ece8d828e016138b2565b9150509295989b9194979a5092959850565b60008060408385031215613ef757613ef6613483565b5b6000613f05858286016136d9565b9250506020613f16858286016136d9565b9150509250929050565b7f4e487b7100000000000000000000000000000000000000000000000000000000600052602260045260246000fd5b60006002820490506001821680613f6757607f821691505b60208210811415613f7b57613f7a613f20565b5b50919050565b7f4552433732313a20617070726f76616c20746f2063757272656e74206f776e6560008201527f7200000000000000000000000000000000000000000000000000000000000000602082015250565b6000613fdd602183613553565b9150613fe882613f81565b604082019050919050565b6000602082019050818103600083015261400c81613fd0565b9050919050565b7f4552433732313a20617070726f76652063616c6c6572206973206e6f7420746f60008201527f6b656e206f776e6572206f7220617070726f76656420666f7220616c6c000000602082015250565b600061406f603d83613553565b915061407a82614013565b604082019050919050565b6000602082019050818103600083015261409e81614062565b9050919050565b7f4552433732313a2063616c6c6572206973206e6f7420746f6b656e206f776e6560008201527f72206f7220617070726f76656400000000000000000000000000000000000000602082015250565b6000614101602d83613553565b915061410c826140a5565b604082019050919050565b60006020820190508181036000830152614130816140f4565b9050919050565b7f455243373231456e756d657261626c653a206f776e657220696e646578206f7560008201527f74206f6620626f756e6473000000000000000000000000000000000000000000602082015250565b6000614193602b83613553565b915061419e82614137565b604082019050919050565b600060208201905081810360008301526141c281614186565b9050919050565b7f4164647265737320616c72656164792068617320616e206964656e7469747900600082015250565b60006141ff601f83613553565b915061420a826141c9565b602082019050919050565b6000602082019050818103600083015261422e816141f2565b9050919050565b7f4669727374206e616d652063616e6e6f7420626520656d707479000000000000600082015250565b600061426b601a83613553565b915061427682614235565b602082019050919050565b6000602082019050818103600083015261429a8161425e565b9050919050565b7f4c617374206e616d652063616e6e6f7420626520656d70747900000000000000600082015250565b60006142d7601983613553565b91506142e2826142a1565b602082019050919050565b60006020820190508181036000830152614306816142ca565b9050919050565b7f496e76616c69642064617465206f662062697274680000000000000000000000600082015250565b6000614343601583613553565b915061434e8261430d565b602082019050919050565b6000602082019050818103600083015261437281614336565b9050919050565b7f496e76616c69642061737369676e656520616464726573730000000000000000600082015250565b60006143af601883613553565b91506143ba82614379565b602082019050919050565b600060208201905081810360008301526143de816143a2565b9050919050565b7f4e487b7100000000000000000000000000000000000000000000000000000000600052601160045260246000fd5b600061441f82613603565b91507fffffffffffffffffffffffffffffffffffffffffffffffffffffffffffffffff821415614452576144516143e5565b5b600182019050919050565b7f455243373231456e756d657261626c653a20676c6f62616c20696e646578206f60008201527f7574206f6620626f756e64730000000000000000000000000000000000000000602082015250565b60006144b9602c83613553565b91506144c48261445d565b604082019050919050565b600060208201905081810360008301526144e8816144ac565b9050919050565b7f4e487b7100000000000000000000000000000000000000000000000000000000600052603260045260246000fd5b7f4964656e7469747920646f6573206e6f74206578697374000000000000000000600082015250565b6000614554601783613553565b915061455f8261451e565b602082019050919050565b6000602082019050818103600083015261458381614547565b9050919050565b7f4552433732313a20696e76616c696420746f6b656e2049440000000000000000600082015250565b60006145c0601883613553565b91506145cb8261458a565b602082019050919050565b600060208201905081810360008301526145ef816145b3565b9050919050565b7f4552433732313a2061646472657373207a65726f206973206e6f74206120766160008201527f6c6964206f776e65720000000000000000000000000000000000000000000000602082015250565b6000614652602983613553565b915061465d826145f6565b604082019050919050565b6000602082019050818103600083015261468181614645565b9050919050565b7f4e6f7420746865206f776e6572206f6620746865206964656e74697479000000600082015250565b60006146be601d83613553565b91506146c982614688565b602082019050919050565b600060208201905081810360008301526146ed816146b1565b9050919050565b600081905092915050565b600061470a82613548565b61471481856146f4565b9350614724818560208601613564565b80840191505092915050565b600061473c82856146ff565b915061474882846146ff565b91508190509392505050565b7f4f776e61626c653a206e6577206f776e657220697320746865207a65726f206160008201527f6464726573730000000000000000000000000000000000000000000000000000602082015250565b60006147b0602683613553565b91506147bb82614754565b604082019050919050565b600060208201905081810360008301526147df816147a3565b9050919050565b7f4552433732313a207472616e736665722066726f6d20696e636f72726563742060008201527f6f776e6572000000000000000000000000000000000000000000000000000000602082015250565b6000614842602583613553565b915061484d826147e6565b604082019050919050565b6000602082019050818103600083015261487181614835565b9050919050565b7f4552433732313a207472616e7366657220746f20746865207a65726f2061646460008201527f7265737300000000000000000000000000000000000000000000000000000000602082015250565b60006148d4602483613553565b91506148df82614878565b604082019050919050565b60006020820190508181036000830152614903816148c7565b9050919050565b7f4f776e61626c653a2063616c6c6572206973206e6f7420746865206f776e6572600082015250565b6000614940602083613553565b915061494b8261490a565b602082019050919050565b6000602082019050818103600083015261496f81614933565b9050919050565b600061498182613603565b915061498c83613603565b92508282101561499f5761499e6143e5565b5b828203905092915050565b7f4e487b7100000000000000000000000000000000000000000000000000000000600052601260045260246000fd5b60006149e482613603565b91506149ef83613603565b9250826149ff576149fe6149aa565b5b828204905092915050565b7f4552433732313a20617070726f766520746f2063616c6c657200000000000000600082015250565b6000614a40601983613553565b9150614a4b82614a0a565b602082019050919050565b60006020820190508181036000830152614a6f81614a33565b9050919050565b7f4552433732313a207472616e7366657220746f206e6f6e20455243373231526560008201527f63656976657220696d706c656d656e7465720000000000000000000000000000602082015250565b6000614ad2603283613553565b9150614add82614a76565b604082019050919050565b60006020820190508181036000830152614b0181614ac5565b9050919050565b7f546f6b656e206e6f74207472616e7366657261626c6500000000000000000000600082015250565b6000614b3e601683613553565b9150614b4982614b08565b602082019050919050565b60006020820190508181036000830152614b6d81614b31565b9050919050565b600081519050919050565b600082825260208201905092915050565b6000614b9b82614b74565b614ba58185614b7f565b9350614bb5818560208601613564565b614bbe81613597565b840191505092915050565b6000608082019050614bde6000830187613698565b614beb6020830186613698565b614bf8604083018561372e565b8181036060830152614c0a8184614b90565b905095945050505050565b600081519050614c24816134b9565b92915050565b600060208284031215614c4057614c3f613483565b5b6000614c4e84828501614c15565b91505092915050565b7f455243373231456e756d657261626c653a20636f6e736563757469766520747260008201527f616e7366657273206e6f7420737570706f727465640000000000000000000000602082015250565b6000614cb3603583613553565b9150614cbe82614c57565b604082019050919050565b60006020820190508181036000830152614ce281614ca6565b9050919050565b7f4552433732313a206d696e7420746f20746865207a65726f2061646472657373600082015250565b6000614d1f602083613553565b9150614d2a82614ce9565b602082019050919050565b60006020820190508181036000830152614d4e81614d12565b9050919050565b7f4552433732313a20746f6b656e20616c7265616479206d696e74656400000000600082015250565b6000614d8b601c83613553565b9150614d9682614d55565b602082019050919050565b60006020820190508181036000830152614dba81614d7e565b9050919050565b7f4e487b7100000000000000000000000000000000000000000000000000000000600052603160045260246000fdfea26469706673582212203dc543fb4c2a1fa0836cbc45d2485142cb43725f05f29dec49f90ca9cd1a417d64736f6c63430008090033",
  "linkReferences": {},
  "deployedLinkReferences": {}
}