{
  "_format": "hh-sol-artifact-1",
  "contractName": "SelfSovereignIdentity",
  "sourceName": "contracts/SSID.sol",
  "abi": [
    {
      "inputs": [
        {
          "internalType": "string",
          "name": "_name",
          "type": "string"
        },
        {
          "internalType": "string",
          "name": "_symbol",
          "type": "string"
        }
      ],
      "stateMutability": "nonpayable",
      "type": "constructor"
    },
    {
      "anonymous": false,
      "inputs": [
        {
          "indexed": true,
          "internalType": "address",
          "name": "owner",
          "type": "address"
        },
        {
          "indexed": true,
          "internalType": "address",
          "name": "approved",
          "type": "address"
        },
        {
          "indexed": true,
          "internalType": "uint256",
          "name": "tokenId",
          "type": "uint256"
        }
      ],
      "name": "Approval",
      "type": "event"
    },
    {
      "anonymous": false,
      "inputs": [
        {
          "indexed": true,
          "internalType": "address",
          "name": "owner",
          "type": "address"
        },
        {
          "indexed": true,
          "internalType": "address",
          "name": "operator",
          "type": "address"
        },
        {
          "indexed": false,
          "internalType": "bool",
          "name": "approved",
          "type": "bool"
        }
      ],
      "name": "ApprovalForAll",
      "type": "event"
    },
    {
      "anonymous": false,
      "inputs": [
        {
          "indexed": true,
          "internalType": "address",
          "name": "previousOwner",
          "type": "address"
        },
        {
          "indexed": true,
          "internalType": "address",
          "name": "newOwner",
          "type": "address"
        }
      ],
      "name": "OwnershipTransferred",
      "type": "event"
    },
    {
      "anonymous": false,
      "inputs": [
        {
          "indexed": true,
          "internalType": "address",
          "name": "from",
          "type": "address"
        },
        {
          "indexed": true,
          "internalType": "address",
          "name": "to",
          "type": "address"
        },
        {
          "indexed": true,
          "internalType": "uint256",
          "name": "tokenId",
          "type": "uint256"
        }
      ],
      "name": "Transfer",
      "type": "event"
    },
    {
      "inputs": [
        {
          "internalType": "address",
          "name": "to",
          "type": "address"
        },
        {
          "internalType": "uint256",
          "name": "tokenId",
          "type": "uint256"
        }
      ],
      "name": "approve",
      "outputs": [],
      "stateMutability": "nonpayable",
      "type": "function"
    },
    {
      "inputs": [
        {
          "internalType": "address",
          "name": "owner",
          "type": "address"
        }
      ],
      "name": "balanceOf",
      "outputs": [
        {
          "internalType": "uint256",
          "name": "",
          "type": "uint256"
        }
      ],
      "stateMutability": "view",
      "type": "function"
    },
    {
      "inputs": [
        {
          "internalType": "string",
          "name": "_firstName",
          "type": "string"
        },
        {
          "internalType": "string",
          "name": "_lastName",
          "type": "string"
        },
        {
          "internalType": "uint256",
          "name": "_dateOfBirth",
          "type": "uint256"
        },
        {
          "internalType": "string",
          "name": "_fatherName",
          "type": "string"
        },
        {
          "internalType": "string",
          "name": "_motherName",
          "type": "string"
        },
        {
          "internalType": "string",
          "name": "_placeOfBirth",
          "type": "string"
        },
        {
          "internalType": "string",
          "name": "_gender",
          "type": "string"
        },
        {
          "internalType": "string",
          "name": "_socialStatus",
          "type": "string"
        },
        {
          "internalType": "string",
          "name": "_city",
          "type": "string"
        },
        {
          "internalType": "string",
          "name": "_imgUrl",
          "type": "string"
        },
        {
          "internalType": "address",
          "name": "_assignTo",
          "type": "address"
        }
      ],
      "name": "createIdentity",
      "outputs": [],
      "stateMutability": "nonpayable",
      "type": "function"
    },
    {
      "inputs": [
        {
          "internalType": "uint256",
          "name": "tokenId",
          "type": "uint256"
        }
      ],
      "name": "getApproved",
      "outputs": [
        {
          "internalType": "address",
          "name": "",
          "type": "address"
        }
      ],
      "stateMutability": "view",
      "type": "function"
    },
    {
      "inputs": [
        {
          "internalType": "uint256",
          "name": "_tokenId",
          "type": "uint256"
        }
      ],
      "name": "getIdentity",
      "outputs": [
        {
          "internalType": "string",
          "name": "",
          "type": "string"
        },
        {
          "internalType": "string",
          "name": "",
          "type": "string"
        },
        {
          "internalType": "uint256",
          "name": "",
          "type": "uint256"
        },
        {
          "internalType": "string",
          "name": "",
          "type": "string"
        },
        {
          "internalType": "string",
          "name": "",
          "type": "string"
        },
        {
          "internalType": "string",
          "name": "",
          "type": "string"
        },
        {
          "internalType": "string",
          "name": "",
          "type": "string"
        },
        {
          "internalType": "string",
          "name": "",
          "type": "string"
        },
        {
          "internalType": "string",
          "name": "",
          "type": "string"
        },
        {
          "internalType": "string",
          "name": "",
          "type": "string"
        }
      ],
      "stateMutability": "view",
      "type": "function"
    },
    {
      "inputs": [],
      "name": "getMyIdentity",
      "outputs": [
        {
          "internalType": "string",
          "name": "",
          "type": "string"
        },
        {
          "internalType": "string",
          "name": "",
          "type": "string"
        },
        {
          "internalType": "uint256",
          "name": "",
          "type": "uint256"
        },
        {
          "internalType": "string",
          "name": "",
          "type": "string"
        },
        {
          "internalType": "string",
          "name": "",
          "type": "string"
        },
        {
          "internalType": "string",
          "name": "",
          "type": "string"
        },
        {
          "internalType": "string",
          "name": "",
          "type": "string"
        },
        {
          "internalType": "string",
          "name": "",
          "type": "string"
        },
        {
          "internalType": "string",
          "name": "",
          "type": "string"
        },
        {
          "internalType": "string",
          "name": "",
          "type": "string"
        }
      ],
      "stateMutability": "view",
      "type": "function"
    },
    {
      "inputs": [],
      "name": "getMyIdentityTokenId",
      "outputs": [
        {
          "internalType": "uint256",
          "name": "",
          "type": "uint256"
        }
      ],
      "stateMutability": "view",
      "type": "function"
    },
    {
      "inputs": [
        {
          "internalType": "address",
          "name": "_addresss",
          "type": "address"
        }
      ],
      "name": "isAdult",
      "outputs": [
        {
          "internalType": "bool",
          "name": "",
          "type": "bool"
        }
      ],
      "stateMutability": "view",
      "type": "function"
    },
    {
      "inputs": [
        {
          "internalType": "address",
          "name": "owner",
          "type": "address"
        },
        {
          "internalType": "address",
          "name": "operator",
          "type": "address"
        }
      ],
      "name": "isApprovedForAll",
      "outputs": [
        {
          "internalType": "bool",
          "name": "",
          "type": "bool"
        }
      ],
      "stateMutability": "view",
      "type": "function"
    },
    {
      "inputs": [],
      "name": "name",
      "outputs": [
        {
          "internalType": "string",
          "name": "",
          "type": "string"
        }
      ],
      "stateMutability": "view",
      "type": "function"
    },
    {
      "inputs": [],
      "name": "owner",
      "outputs": [
        {
          "internalType": "address",
          "name": "",
          "type": "address"
        }
      ],
      "stateMutability": "view",
      "type": "function"
    },
    {
      "inputs": [
        {
          "internalType": "uint256",
          "name": "tokenId",
          "type": "uint256"
        }
      ],
      "name": "ownerOf",
      "outputs": [
        {
          "internalType": "address",
          "name": "",
          "type": "address"
        }
      ],
      "stateMutability": "view",
      "type": "function"
    },
    {
      "inputs": [],
      "name": "renounceOwnership",
      "outputs": [],
      "stateMutability": "nonpayable",
      "type": "function"
    },
    {
      "inputs": [
        {
          "internalType": "address",
          "name": "from",
          "type": "address"
        },
        {
          "internalType": "address",
          "name": "to",
          "type": "address"
        },
        {
          "internalType": "uint256",
          "name": "tokenId",
          "type": "uint256"
        }
      ],
      "name": "safeTransferFrom",
      "outputs": [],
      "stateMutability": "nonpayable",
      "type": "function"
    },
    {
      "inputs": [
        {
          "internalType": "address",
          "name": "from",
          "type": "address"
        },
        {
          "internalType": "address",
          "name": "to",
          "type": "address"
        },
        {
          "internalType": "uint256",
          "name": "tokenId",
          "type": "uint256"
        },
        {
          "internalType": "bytes",
          "name": "data",
          "type": "bytes"
        }
      ],
      "name": "safeTransferFrom",
      "outputs": [],
      "stateMutability": "nonpayable",
      "type": "function"
    },
    {
      "inputs": [
        {
          "internalType": "address",
          "name": "operator",
          "type": "address"
        },
        {
          "internalType": "bool",
          "name": "approved",
          "type": "bool"
        }
      ],
      "name": "setApprovalForAll",
      "outputs": [],
      "stateMutability": "nonpayable",
      "type": "function"
    },
    {
      "inputs": [
        {
          "internalType": "bytes4",
          "name": "interfaceId",
          "type": "bytes4"
        }
      ],
      "name": "supportsInterface",
      "outputs": [
        {
          "internalType": "bool",
          "name": "",
          "type": "bool"
        }
      ],
      "stateMutability": "view",
      "type": "function"
    },
    {
      "inputs": [],
      "name": "symbol",
      "outputs": [
        {
          "internalType": "string",
          "name": "",
          "type": "string"
        }
      ],
      "stateMutability": "view",
      "type": "function"
    },
    {
      "inputs": [
        {
          "internalType": "uint256",
          "name": "index",
          "type": "uint256"
        }
      ],
      "name": "tokenByIndex",
      "outputs": [
        {
          "internalType": "uint256",
          "name": "",
          "type": "uint256"
        }
      ],
      "stateMutability": "view",
      "type": "function"
    },
    {
      "inputs": [
        {
          "internalType": "address",
          "name": "owner",
          "type": "address"
        },
        {
          "internalType": "uint256",
          "name": "index",
          "type": "uint256"
        }
      ],
      "name": "tokenOfOwnerByIndex",
      "outputs": [
        {
          "internalType": "uint256",
          "name": "",
          "type": "uint256"
        }
      ],
      "stateMutability": "view",
      "type": "function"
    },
    {
      "inputs": [
        {
          "internalType": "uint256",
          "name": "tokenId",
          "type": "uint256"
        }
      ],
      "name": "tokenURI",
      "outputs": [
        {
          "internalType": "string",
          "name": "",
          "type": "string"
        }
      ],
      "stateMutability": "view",
      "type": "function"
    },
    {
      "inputs": [],
      "name": "totalSupply",
      "outputs": [
        {
          "internalType": "uint256",
          "name": "",
          "type": "uint256"
        }
      ],
      "stateMutability": "view",
      "type": "function"
    },
    {
      "inputs": [
        {
          "internalType": "address",
          "name": "from",
          "type": "address"
        },
        {
          "internalType": "address",
          "name": "to",
          "type": "address"
        },
        {
          "internalType": "uint256",
          "name": "tokenId",
          "type": "uint256"
        }
      ],
      "name": "transferFrom",
      "outputs": [],
      "stateMutability": "nonpayable",
      "type": "function"
    },
    {
      "inputs": [
        {
          "internalType": "address",
          "name": "newOwner",
          "type": "address"
        }
      ],
      "name": "transferOwnership",
      "outputs": [],
      "stateMutability": "nonpayable",
      "type": "function"
    },
    {
      "inputs": [
        {
          "internalType": "uint256",
          "name": "_tokenId",
          "type": "uint256"
        },
        {
          "internalType": "string",
          "name": "_firstName",
          "type": "string"
        },
        {
          "internalType": "string",
          "name": "_lastName",
          "type": "string"
        },
        {
          "internalType": "uint256",
          "name": "_dateOfBirth",
          "type": "uint256"
        },
        {
          "internalType": "string",
          "name": "_fatherName",
          "type": "string"
        },
        {
          "internalType": "string",
          "name": "_motherName",
          "type": "string"
        },
        {
          "internalType": "string",
          "name": "_placeOfBirth",
          "type": "string"
        },
        {
          "internalType": "string",
          "name": "_gender",
          "type": "string"
        },
        {
          "internalType": "string",
          "name": "_socialStatus",
          "type": "string"
        },
        {
          "internalType": "string",
          "name": "_city",
          "type": "string"
        },
        {
          "internalType": "string",
          "name": "_imgUrl",
          "type": "string"
        }
      ],
      "name": "updateIdentity",
      "outputs": [],
      "stateMutability": "nonpayable",
      "type": "function"
    }
  ],
  "bytecode": "0x60806040523480156200001157600080fd5b5060405162005aa638038062005aa68339818101604052810190620000379190620003b8565b81818160009080519060200190620000519291906200016b565b5080600190805190602001906200006a9291906200016b565b5050506200008d620000816200009d60201b60201c565b620000a560201b60201c565b6000600d819055505050620004a2565b600033905090565b6000600a60009054906101000a900473ffffffffffffffffffffffffffffffffffffffff16905081600a60006101000a81548173ffffffffffffffffffffffffffffffffffffffff021916908373ffffffffffffffffffffffffffffffffffffffff1602179055508173ffffffffffffffffffffffffffffffffffffffff168173ffffffffffffffffffffffffffffffffffffffff167f8be0079c531659141344cd1fd0a4f28419497f9722a3daafe3b4186f6b6457e060405160405180910390a35050565b82805462000179906200046c565b90600052602060002090601f0160209004810192826200019d5760008555620001e9565b82601f10620001b857805160ff1916838001178555620001e9565b82800160010185558215620001e9579182015b82811115620001e8578251825591602001919060010190620001cb565b5b509050620001f89190620001fc565b5090565b5b8082111562000217576000816000905550600101620001fd565b5090565b6000604051905090565b600080fd5b600080fd5b600080fd5b600080fd5b6000601f19601f8301169050919050565b7f4e487b7100000000000000000000000000000000000000000000000000000000600052604160045260246000fd5b620002848262000239565b810181811067ffffffffffffffff82111715620002a657620002a56200024a565b5b80604052505050565b6000620002bb6200021b565b9050620002c9828262000279565b919050565b600067ffffffffffffffff821115620002ec57620002eb6200024a565b5b620002f78262000239565b9050602081019050919050565b60005b838110156200032457808201518184015260208101905062000307565b8381111562000334576000848401525b50505050565b6000620003516200034b84620002ce565b620002af565b90508281526020810184848401111562000370576200036f62000234565b5b6200037d84828562000304565b509392505050565b600082601f8301126200039d576200039c6200022f565b5b8151620003af8482602086016200033a565b91505092915050565b60008060408385031215620003d257620003d162000225565b5b600083015167ffffffffffffffff811115620003f357620003f26200022a565b5b620004018582860162000385565b925050602083015167ffffffffffffffff8111156200042557620004246200022a565b5b620004338582860162000385565b9150509250929050565b7f4e487b7100000000000000000000000000000000000000000000000000000000600052602260045260246000fd5b600060028204905060018216806200048557607f821691505b602082108114156200049c576200049b6200043d565b5b50919050565b6155f480620004b26000396000f3fe608060405234801561001057600080fd5b50600436106101735760003560e01c806370a08231116100de578063a22cb46511610097578063c87b56dd11610071578063c87b56dd1461045c578063e985e9c51461048c578063eb13ec86146104bc578063f2fde38b146104ec57610173565b8063a22cb465146103fd578063b88d4fde14610419578063b9d696471461043557610173565b806370a0823114610332578063715018a61461036257806385e3f0581461036c578063878de95d146103a55780638da5cb5b146103c157806395d89b41146103df57610173565b806323b872dd1161013057806323b872dd1461024e5780632c2d6e4a1461026a5780632f745c591461028657806342842e0e146102b65780634f6ccce7146102d25780636352211e1461030257610173565b806301ffc9a71461017857806306fdde03146101a8578063081812fc146101c6578063095ea7b3146101f657806316b8294c1461021257806318160ddd14610230575b600080fd5b610192600480360381019061018d9190613947565b610508565b60405161019f919061398f565b60405180910390f35b6101b061051a565b6040516101bd9190613a43565b60405180910390f35b6101e060048036038101906101db9190613a9b565b6105ac565b6040516101ed9190613b09565b60405180910390f35b610210600480360381019061020b9190613b50565b6105f2565b005b61021a61070a565b6040516102279190613b9f565b60405180910390f35b610238610796565b6040516102459190613b9f565b60405180910390f35b61026860048036038101906102639190613bba565b6107a3565b005b610284600480360381019061027f9190613d42565b610803565b005b6102a0600480360381019061029b9190613b50565b610a2d565b6040516102ad9190613b9f565b60405180910390f35b6102d060048036038101906102cb9190613bba565b610ad2565b005b6102ec60048036038101906102e79190613a9b565b610af2565b6040516102f99190613b9f565b60405180910390f35b61031c60048036038101906103179190613a9b565b610b63565b6040516103299190613b09565b60405180910390f35b61034c60048036038101906103479190613f32565b610bea565b6040516103599190613b9f565b60405180910390f35b61036a610ca2565b005b61038660048036038101906103819190613a9b565b610cb6565b60405161039c9a99989796959493929190613f5f565b60405180910390f35b6103bf60048036038101906103ba919061403a565b61132b565b005b6103c961188e565b6040516103d69190613b09565b60405180910390f35b6103e76118b8565b6040516103f49190613a43565b60405180910390f35b61041760048036038101906104129190614256565b61194a565b005b610433600480360381019061042e9190614337565b611960565b005b61043d6119c2565b6040516104539a99989796959493929190613f5f565b60405180910390f35b61047660048036038101906104719190613a9b565b611b24565b6040516104839190613a43565b60405180910390f35b6104a660048036038101906104a191906143ba565b611b8c565b6040516104b3919061398f565b60405180910390f35b6104d660048036038101906104d19190613f32565b611c20565b6040516104e3919061398f565b60405180910390f35b61050660048036038101906105019190613f32565b612213565b005b600061051382612297565b9050919050565b60606000805461052990614429565b80601f016020809104026020016040519081016040528092919081815260200182805461055590614429565b80156105a25780601f10610577576101008083540402835291602001916105a2565b820191906000526020600020905b81548152906001019060200180831161058557829003601f168201915b5050505050905090565b60006105b782612311565b6004600083815260200190815260200160002060009054906101000a900473ffffffffffffffffffffffffffffffffffffffff169050919050565b60006105fd82610b63565b90508073ffffffffffffffffffffffffffffffffffffffff168373ffffffffffffffffffffffffffffffffffffffff16141561066e576040517f08c379a0000000000000000000000000000000000000000000000000000000008152600401610665906144cd565b60405180910390fd5b8073ffffffffffffffffffffffffffffffffffffffff1661068d61235c565b73ffffffffffffffffffffffffffffffffffffffff1614806106bc57506106bb816106b661235c565b611b8c565b5b6106fb576040517f08c379a00000000000000000000000000000000000000000000000000000000081526004016106f29061455f565b60405180910390fd5b6107058383612364565b505050565b600080610715610796565b905060005b8181101561078c5761072b8161241d565b801561076a57503373ffffffffffffffffffffffffffffffffffffffff1661075282610b63565b73ffffffffffffffffffffffffffffffffffffffff16145b15610779578092505050610793565b8080610784906145ae565b91505061071a565b5060009150505b90565b6000600880549050905090565b6107b46107ae61235c565b8261245e565b6107f3576040517f08c379a00000000000000000000000000000000000000000000000000000000081526004016107ea90614669565b60405180910390fd5b6107fe8383836124f3565b505050565b61080b6127ed565b60008a511161084f576040517f08c379a0000000000000000000000000000000000000000000000000000000008152600401610846906146d5565b60405180910390fd5b6000895111610893576040517f08c379a000000000000000000000000000000000000000000000000000000000815260040161088a90614741565b60405180910390fd5b600088116108d6576040517f08c379a00000000000000000000000000000000000000000000000000000000081526004016108cd906147ad565b60405180910390fd5b6108df8b61241d565b61091e576040517f08c379a000000000000000000000000000000000000000000000000000000000815260040161091590614819565b60405180910390fd5b6000600b60008d815260200190815260200160002090508a81600001908051906020019061094d929190613838565b5089816001019080519060200190610966929190613838565b5088816002018190555087816003019080519060200190610988929190613838565b50868160040190805190602001906109a1929190613838565b50858160050190805190602001906109ba929190613838565b50848160060190805190602001906109d3929190613838565b50838160070190805190602001906109ec929190613838565b5082816008019080519060200190610a05929190613838565b5081816009019080519060200190610a1e929190613838565b50505050505050505050505050565b6000610a3883610bea565b8210610a79576040517f08c379a0000000000000000000000000000000000000000000000000000000008152600401610a70906148ab565b60405180910390fd5b600660008473ffffffffffffffffffffffffffffffffffffffff1673ffffffffffffffffffffffffffffffffffffffff168152602001908152602001600020600083815260200190815260200160002054905092915050565b610aed83838360405180602001604052806000815250611960565b505050565b6000610afc610796565b8210610b3d576040517f08c379a0000000000000000000000000000000000000000000000000000000008152600401610b349061493d565b60405180910390fd5b60088281548110610b5157610b5061495d565b5b90600052602060002001549050919050565b600080610b6f8361286b565b9050600073ffffffffffffffffffffffffffffffffffffffff168173ffffffffffffffffffffffffffffffffffffffff161415610be1576040517f08c379a0000000000000000000000000000000000000000000000000000000008152600401610bd8906149d8565b60405180910390fd5b80915050919050565b60008073ffffffffffffffffffffffffffffffffffffffff168273ffffffffffffffffffffffffffffffffffffffff161415610c5b576040517f08c379a0000000000000000000000000000000000000000000000000000000008152600401610c5290614a6a565b60405180910390fd5b600360008373ffffffffffffffffffffffffffffffffffffffff1673ffffffffffffffffffffffffffffffffffffffff168152602001908152602001600020549050919050565b610caa6127ed565b610cb460006128a8565b565b606080600060608060608060608060608a3373ffffffffffffffffffffffffffffffffffffffff16610ce782610b63565b73ffffffffffffffffffffffffffffffffffffffff1614610d3d576040517f08c379a0000000000000000000000000000000000000000000000000000000008152600401610d3490614ad6565b60405180910390fd5b610d468c61241d565b610d85576040517f08c379a0000000000000000000000000000000000000000000000000000000008152600401610d7c90614819565b60405180910390fd5b6000600b60008e815260200190815260200160002060405180610140016040529081600082018054610db690614429565b80601f0160208091040260200160405190810160405280929190818152602001828054610de290614429565b8015610e2f5780601f10610e0457610100808354040283529160200191610e2f565b820191906000526020600020905b815481529060010190602001808311610e1257829003601f168201915b50505050508152602001600182018054610e4890614429565b80601f0160208091040260200160405190810160405280929190818152602001828054610e7490614429565b8015610ec15780601f10610e9657610100808354040283529160200191610ec1565b820191906000526020600020905b815481529060010190602001808311610ea457829003601f168201915b5050505050815260200160028201548152602001600382018054610ee490614429565b80601f0160208091040260200160405190810160405280929190818152602001828054610f1090614429565b8015610f5d5780601f10610f3257610100808354040283529160200191610f5d565b820191906000526020600020905b815481529060010190602001808311610f4057829003601f168201915b50505050508152602001600482018054610f7690614429565b80601f0160208091040260200160405190810160405280929190818152602001828054610fa290614429565b8015610fef5780601f10610fc457610100808354040283529160200191610fef565b820191906000526020600020905b815481529060010190602001808311610fd257829003601f168201915b5050505050815260200160058201805461100890614429565b80601f016020809104026020016040519081016040528092919081815260200182805461103490614429565b80156110815780601f1061105657610100808354040283529160200191611081565b820191906000526020600020905b81548152906001019060200180831161106457829003601f168201915b5050505050815260200160068201805461109a90614429565b80601f01602080910402602001604051908101604052809291908181526020018280546110c690614429565b80156111135780601f106110e857610100808354040283529160200191611113565b820191906000526020600020905b8154815290600101906020018083116110f657829003601f168201915b5050505050815260200160078201805461112c90614429565b80601f016020809104026020016040519081016040528092919081815260200182805461115890614429565b80156111a55780601f1061117a576101008083540402835291602001916111a5565b820191906000526020600020905b81548152906001019060200180831161118857829003601f168201915b505050505081526020016008820180546111be90614429565b80601f01602080910402602001604051908101604052809291908181526020018280546111ea90614429565b80156112375780601f1061120c57610100808354040283529160200191611237565b820191906000526020600020905b81548152906001019060200180831161121a57829003601f168201915b5050505050815260200160098201805461125090614429565b80601f016020809104026020016040519081016040528092919081815260200182805461127c90614429565b80156112c95780601f1061129e576101008083540402835291602001916112c9565b820191906000526020600020905b8154815290600101906020018083116112ac57829003601f168201915b5050505050815250509050806000015181602001518260400151836060015184608001518560a001518660c001518760e001518861010001518961012001519b509b509b509b509b509b509b509b509b509b5050509193959799509193959799565b6113336127ed565b600161133d610796565b1061137d576040517f08c379a000000000000000000000000000000000000000000000000000000000815260040161137490614b42565b60405180910390fd5b60008b51116113c1576040517f08c379a00000000000000000000000000000000000000000000000000000000081526004016113b8906146d5565b60405180910390fd5b60008a5111611405576040517f08c379a00000000000000000000000000000000000000000000000000000000081526004016113fc90614741565b60405180910390fd5b60008911611448576040517f08c379a000000000000000000000000000000000000000000000000000000000815260040161143f906147ad565b60405180910390fd5b600088511161148c576040517f08c379a000000000000000000000000000000000000000000000000000000000815260040161148390614bae565b60405180910390fd5b60008751116114d0576040517f08c379a00000000000000000000000000000000000000000000000000000000081526004016114c790614c1a565b60405180910390fd5b6000865111611514576040517f08c379a000000000000000000000000000000000000000000000000000000000815260040161150b90614c86565b60405180910390fd5b6000855111611558576040517f08c379a000000000000000000000000000000000000000000000000000000000815260040161154f90614cf2565b60405180910390fd5b600084511161159c576040517f08c379a000000000000000000000000000000000000000000000000000000000815260040161159390614d5e565b60405180910390fd5b60008351116115e0576040517f08c379a00000000000000000000000000000000000000000000000000000000081526004016115d790614dca565b60405180910390fd5b6000825111611624576040517f08c379a000000000000000000000000000000000000000000000000000000000815260040161161b90614e36565b60405180910390fd5b600073ffffffffffffffffffffffffffffffffffffffff168173ffffffffffffffffffffffffffffffffffffffff161415611694576040517f08c379a000000000000000000000000000000000000000000000000000000000815260040161168b90614ea2565b60405180910390fd5b60006040518061014001604052808d81526020018c81526020018b81526020018a815260200189815260200188815260200187815260200186815260200185815260200184815250905080600b6000600d5481526020019081526020016000206000820151816000019080519060200190611710929190613838565b50602082015181600101908051906020019061172d929190613838565b50604082015181600201556060820151816003019080519060200190611754929190613838565b506080820151816004019080519060200190611771929190613838565b5060a082015181600501908051906020019061178e929190613838565b5060c08201518160060190805190602001906117ab929190613838565b5060e08201518160070190805190602001906117c8929190613838565b506101008201518160080190805190602001906117e6929190613838565b50610120820151816009019080519060200190611804929190613838565b5090505061181482600d5461296e565b81600c6000600d54815260200190815260200160002060006101000a81548173ffffffffffffffffffffffffffffffffffffffff021916908373ffffffffffffffffffffffffffffffffffffffff160217905550600d600081548092919061187b906145ae565b9190505550505050505050505050505050565b6000600a60009054906101000a900473ffffffffffffffffffffffffffffffffffffffff16905090565b6060600180546118c790614429565b80601f01602080910402602001604051908101604052809291908181526020018280546118f390614429565b80156119405780601f1061191557610100808354040283529160200191611940565b820191906000526020600020905b81548152906001019060200180831161192357829003601f168201915b5050505050905090565b61195c61195561235c565b838361298c565b5050565b61197161196b61235c565b8361245e565b6119b0576040517f08c379a00000000000000000000000000000000000000000000000000000000081526004016119a790614669565b60405180910390fd5b6119bc84848484612af9565b50505050565b6060806000606080606080606080606060006119dc610796565b905060005b81811015611a6d576119f28161241d565b8015611a3157503373ffffffffffffffffffffffffffffffffffffffff16611a1982610b63565b73ffffffffffffffffffffffffffffffffffffffff16145b15611a5a57611a3f81610cb6565b9b509b509b509b509b509b509b509b509b509b505050611b18565b8080611a65906145ae565b9150506119e1565b50600060405180602001604052806000815250906040518060200160405280600081525090604051806020016040528060008152506040518060200160405280600081525060405180602001604052806000815250604051806020016040528060008152506040518060200160405280600081525060405180602001604052806000815250604051806020016040528060008152509a509a509a509a509a509a509a509a509a509a50505b90919293949596979899565b6060611b2f82612311565b6000611b39612b55565b90506000815111611b595760405180602001604052806000815250611b84565b80611b6384612b6c565b604051602001611b74929190614efe565b6040516020818303038152906040525b915050919050565b6000600560008473ffffffffffffffffffffffffffffffffffffffff1673ffffffffffffffffffffffffffffffffffffffff16815260200190815260200160002060008373ffffffffffffffffffffffffffffffffffffffff1673ffffffffffffffffffffffffffffffffffffffff16815260200190815260200160002060009054906101000a900460ff16905092915050565b600080600090506000611c31610796565b905060005b81811015611ca257611c478161241d565b8015611c8657508473ffffffffffffffffffffffffffffffffffffffff16611c6e82610b63565b73ffffffffffffffffffffffffffffffffffffffff16145b15611c8f578092505b8080611c9a906145ae565b915050611c36565b506000600b600084815260200190815260200160002060405180610140016040529081600082018054611cd490614429565b80601f0160208091040260200160405190810160405280929190818152602001828054611d0090614429565b8015611d4d5780601f10611d2257610100808354040283529160200191611d4d565b820191906000526020600020905b815481529060010190602001808311611d3057829003601f168201915b50505050508152602001600182018054611d6690614429565b80601f0160208091040260200160405190810160405280929190818152602001828054611d9290614429565b8015611ddf5780601f10611db457610100808354040283529160200191611ddf565b820191906000526020600020905b815481529060010190602001808311611dc257829003601f168201915b5050505050815260200160028201548152602001600382018054611e0290614429565b80601f0160208091040260200160405190810160405280929190818152602001828054611e2e90614429565b8015611e7b5780601f10611e5057610100808354040283529160200191611e7b565b820191906000526020600020905b815481529060010190602001808311611e5e57829003601f168201915b50505050508152602001600482018054611e9490614429565b80601f0160208091040260200160405190810160405280929190818152602001828054611ec090614429565b8015611f0d5780601f10611ee257610100808354040283529160200191611f0d565b820191906000526020600020905b815481529060010190602001808311611ef057829003601f168201915b50505050508152602001600582018054611f2690614429565b80601f0160208091040260200160405190810160405280929190818152602001828054611f5290614429565b8015611f9f5780601f10611f7457610100808354040283529160200191611f9f565b820191906000526020600020905b815481529060010190602001808311611f8257829003601f168201915b50505050508152602001600682018054611fb890614429565b80601f0160208091040260200160405190810160405280929190818152602001828054611fe490614429565b80156120315780601f1061200657610100808354040283529160200191612031565b820191906000526020600020905b81548152906001019060200180831161201457829003601f168201915b5050505050815260200160078201805461204a90614429565b80601f016020809104026020016040519081016040528092919081815260200182805461207690614429565b80156120c35780601f10612098576101008083540402835291602001916120c3565b820191906000526020600020905b8154815290600101906020018083116120a657829003601f168201915b505050505081526020016008820180546120dc90614429565b80601f016020809104026020016040519081016040528092919081815260200182805461210890614429565b80156121555780601f1061212a57610100808354040283529160200191612155565b820191906000526020600020905b81548152906001019060200180831161213857829003601f168201915b5050505050815260200160098201805461216e90614429565b80601f016020809104026020016040519081016040528092919081815260200182805461219a90614429565b80156121e75780601f106121bc576101008083540402835291602001916121e7565b820191906000526020600020905b8154815290600101906020018083116121ca57829003601f168201915b505050505081525050905060006122018260400151612c44565b90506012811015945050505050919050565b61221b6127ed565b600073ffffffffffffffffffffffffffffffffffffffff168173ffffffffffffffffffffffffffffffffffffffff16141561228b576040517f08c379a000000000000000000000000000000000000000000000000000000000815260040161228290614f94565b60405180910390fd5b612294816128a8565b50565b60007f780e9d63000000000000000000000000000000000000000000000000000000007bffffffffffffffffffffffffffffffffffffffffffffffffffffffff1916827bffffffffffffffffffffffffffffffffffffffffffffffffffffffff1916148061230a575061230982612c73565b5b9050919050565b61231a8161241d565b612359576040517f08c379a0000000000000000000000000000000000000000000000000000000008152600401612350906149d8565b60405180910390fd5b50565b600033905090565b816004600083815260200190815260200160002060006101000a81548173ffffffffffffffffffffffffffffffffffffffff021916908373ffffffffffffffffffffffffffffffffffffffff160217905550808273ffffffffffffffffffffffffffffffffffffffff166123d783610b63565b73ffffffffffffffffffffffffffffffffffffffff167f8c5be1e5ebec7d5bd14f71427d1e84f3dd0314c0f7b2291e5b200ac8c7c3b92560405160405180910390a45050565b60008073ffffffffffffffffffffffffffffffffffffffff1661243f8361286b565b73ffffffffffffffffffffffffffffffffffffffff1614159050919050565b60008061246a83610b63565b90508073ffffffffffffffffffffffffffffffffffffffff168473ffffffffffffffffffffffffffffffffffffffff1614806124ac57506124ab8185611b8c565b5b806124ea57508373ffffffffffffffffffffffffffffffffffffffff166124d2846105ac565b73ffffffffffffffffffffffffffffffffffffffff16145b91505092915050565b8273ffffffffffffffffffffffffffffffffffffffff1661251382610b63565b73ffffffffffffffffffffffffffffffffffffffff1614612569576040517f08c379a000000000000000000000000000000000000000000000000000000000815260040161256090615026565b60405180910390fd5b600073ffffffffffffffffffffffffffffffffffffffff168273ffffffffffffffffffffffffffffffffffffffff1614156125d9576040517f08c379a00000000000000000000000000000000000000000000000000000000081526004016125d0906150b8565b60405180910390fd5b6125e68383836001612d55565b8273ffffffffffffffffffffffffffffffffffffffff1661260682610b63565b73ffffffffffffffffffffffffffffffffffffffff161461265c576040517f08c379a000000000000000000000000000000000000000000000000000000000815260040161265390615026565b60405180910390fd5b6004600082815260200190815260200160002060006101000a81549073ffffffffffffffffffffffffffffffffffffffff02191690556001600360008573ffffffffffffffffffffffffffffffffffffffff1673ffffffffffffffffffffffffffffffffffffffff168152602001908152602001600020600082825403925050819055506001600360008473ffffffffffffffffffffffffffffffffffffffff1673ffffffffffffffffffffffffffffffffffffffff16815260200190815260200160002060008282540192505081905550816002600083815260200190815260200160002060006101000a81548173ffffffffffffffffffffffffffffffffffffffff021916908373ffffffffffffffffffffffffffffffffffffffff160217905550808273ffffffffffffffffffffffffffffffffffffffff168473ffffffffffffffffffffffffffffffffffffffff167fddf252ad1be2c89b69c2b068fc378daa952ba7f163c4a11628f55a4df523b3ef60405160405180910390a46127e88383836001612dd6565b505050565b6127f561235c565b73ffffffffffffffffffffffffffffffffffffffff1661281361188e565b73ffffffffffffffffffffffffffffffffffffffff1614612869576040517f08c379a000000000000000000000000000000000000000000000000000000000815260040161286090615124565b60405180910390fd5b565b60006002600083815260200190815260200160002060009054906101000a900473ffffffffffffffffffffffffffffffffffffffff169050919050565b6000600a60009054906101000a900473ffffffffffffffffffffffffffffffffffffffff16905081600a60006101000a81548173ffffffffffffffffffffffffffffffffffffffff021916908373ffffffffffffffffffffffffffffffffffffffff1602179055508173ffffffffffffffffffffffffffffffffffffffff168173ffffffffffffffffffffffffffffffffffffffff167f8be0079c531659141344cd1fd0a4f28419497f9722a3daafe3b4186f6b6457e060405160405180910390a35050565b612988828260405180602001604052806000815250612ddc565b5050565b8173ffffffffffffffffffffffffffffffffffffffff168373ffffffffffffffffffffffffffffffffffffffff1614156129fb576040517f08c379a00000000000000000000000000000000000000000000000000000000081526004016129f290615190565b60405180910390fd5b80600560008573ffffffffffffffffffffffffffffffffffffffff1673ffffffffffffffffffffffffffffffffffffffff16815260200190815260200160002060008473ffffffffffffffffffffffffffffffffffffffff1673ffffffffffffffffffffffffffffffffffffffff16815260200190815260200160002060006101000a81548160ff0219169083151502179055508173ffffffffffffffffffffffffffffffffffffffff168373ffffffffffffffffffffffffffffffffffffffff167f17307eab39ab6107e8899845ad3d59bd9653f200f220920489ca2b5937696c3183604051612aec919061398f565b60405180910390a3505050565b612b048484846124f3565b612b1084848484612e37565b612b4f576040517f08c379a0000000000000000000000000000000000000000000000000000000008152600401612b4690615222565b60405180910390fd5b50505050565b606060405180602001604052806000815250905090565b606060006001612b7b84612fce565b01905060008167ffffffffffffffff811115612b9a57612b99613c17565b5b6040519080825280601f01601f191660200182016040528015612bcc5781602001600182028036833780820191505090505b509050600082602001820190505b600115612c39578080600190039150507f3031323334353637383961626364656600000000000000000000000000000000600a86061a8153600a8581612c2357612c22615242565b5b0494506000851415612c3457612c39565b612bda565b819350505050919050565b60008042905060006301e133808483612c5d9190615271565b612c6791906152a5565b90508092505050919050565b60007f80ac58cd000000000000000000000000000000000000000000000000000000007bffffffffffffffffffffffffffffffffffffffffffffffffffffffff1916827bffffffffffffffffffffffffffffffffffffffffffffffffffffffff19161480612d3e57507f5b5e139f000000000000000000000000000000000000000000000000000000007bffffffffffffffffffffffffffffffffffffffffffffffffffffffff1916827bffffffffffffffffffffffffffffffffffffffffffffffffffffffff1916145b80612d4e5750612d4d82613121565b5b9050919050565b600073ffffffffffffffffffffffffffffffffffffffff168473ffffffffffffffffffffffffffffffffffffffff1614612dc4576040517f08c379a0000000000000000000000000000000000000000000000000000000008152600401612dbb90615322565b60405180910390fd5b612dd08484848461318b565b50505050565b50505050565b612de683836132eb565b612df36000848484612e37565b612e32576040517f08c379a0000000000000000000000000000000000000000000000000000000008152600401612e2990615222565b60405180910390fd5b505050565b6000612e588473ffffffffffffffffffffffffffffffffffffffff16613509565b15612fc1578373ffffffffffffffffffffffffffffffffffffffff1663150b7a02612e8161235c565b8786866040518563ffffffff1660e01b8152600401612ea39493929190615397565b602060405180830381600087803b158015612ebd57600080fd5b505af1925050508015612eee57506040513d601f19601f82011682018060405250810190612eeb91906153f8565b60015b612f71573d8060008114612f1e576040519150601f19603f3d011682016040523d82523d6000602084013e612f23565b606091505b50600081511415612f69576040517f08c379a0000000000000000000000000000000000000000000000000000000008152600401612f6090615222565b60405180910390fd5b805181602001fd5b63150b7a0260e01b7bffffffffffffffffffffffffffffffffffffffffffffffffffffffff1916817bffffffffffffffffffffffffffffffffffffffffffffffffffffffff191614915050612fc6565b600190505b949350505050565b600080600090507a184f03e93ff9f4daa797ed6e38ed64bf6a1f010000000000000000831061302c577a184f03e93ff9f4daa797ed6e38ed64bf6a1f010000000000000000838161302257613021615242565b5b0492506040810190505b6d04ee2d6d415b85acef81000000008310613069576d04ee2d6d415b85acef8100000000838161305f5761305e615242565b5b0492506020810190505b662386f26fc10000831061309857662386f26fc10000838161308e5761308d615242565b5b0492506010810190505b6305f5e10083106130c1576305f5e10083816130b7576130b6615242565b5b0492506008810190505b61271083106130e65761271083816130dc576130db615242565b5b0492506004810190505b6064831061310957606483816130ff576130fe615242565b5b0492506002810190505b600a8310613118576001810190505b80915050919050565b60007f01ffc9a7000000000000000000000000000000000000000000000000000000007bffffffffffffffffffffffffffffffffffffffffffffffffffffffff1916827bffffffffffffffffffffffffffffffffffffffffffffffffffffffff1916149050919050565b6131978484848461352c565b60018111156131db576040517f08c379a00000000000000000000000000000000000000000000000000000000081526004016131d290615497565b60405180910390fd5b6000829050600073ffffffffffffffffffffffffffffffffffffffff168573ffffffffffffffffffffffffffffffffffffffff1614156132235761321e81613532565b613262565b8373ffffffffffffffffffffffffffffffffffffffff168573ffffffffffffffffffffffffffffffffffffffff161461326157613260858261357b565b5b5b600073ffffffffffffffffffffffffffffffffffffffff168473ffffffffffffffffffffffffffffffffffffffff1614156132a5576132a0816136e8565b6132e4565b8473ffffffffffffffffffffffffffffffffffffffff168473ffffffffffffffffffffffffffffffffffffffff16146132e3576132e284826137b9565b5b5b5050505050565b600073ffffffffffffffffffffffffffffffffffffffff168273ffffffffffffffffffffffffffffffffffffffff16141561335b576040517f08c379a000000000000000000000000000000000000000000000000000000000815260040161335290615503565b60405180910390fd5b6133648161241d565b156133a4576040517f08c379a000000000000000000000000000000000000000000000000000000000815260040161339b9061556f565b60405180910390fd5b6133b2600083836001612d55565b6133bb8161241d565b156133fb576040517f08c379a00000000000000000000000000000000000000000000000000000000081526004016133f29061556f565b60405180910390fd5b6001600360008473ffffffffffffffffffffffffffffffffffffffff1673ffffffffffffffffffffffffffffffffffffffff16815260200190815260200160002060008282540192505081905550816002600083815260200190815260200160002060006101000a81548173ffffffffffffffffffffffffffffffffffffffff021916908373ffffffffffffffffffffffffffffffffffffffff160217905550808273ffffffffffffffffffffffffffffffffffffffff16600073ffffffffffffffffffffffffffffffffffffffff167fddf252ad1be2c89b69c2b068fc378daa952ba7f163c4a11628f55a4df523b3ef60405160405180910390a4613505600083836001612dd6565b5050565b6000808273ffffffffffffffffffffffffffffffffffffffff163b119050919050565b50505050565b6008805490506009600083815260200190815260200160002081905550600881908060018154018082558091505060019003906000526020600020016000909190919091505550565b6000600161358884610bea565b6135929190615271565b9050600060076000848152602001908152602001600020549050818114613677576000600660008673ffffffffffffffffffffffffffffffffffffffff1673ffffffffffffffffffffffffffffffffffffffff168152602001908152602001600020600084815260200190815260200160002054905080600660008773ffffffffffffffffffffffffffffffffffffffff1673ffffffffffffffffffffffffffffffffffffffff168152602001908152602001600020600084815260200190815260200160002081905550816007600083815260200190815260200160002081905550505b6007600084815260200190815260200160002060009055600660008573ffffffffffffffffffffffffffffffffffffffff1673ffffffffffffffffffffffffffffffffffffffff16815260200190815260200160002060008381526020019081526020016000206000905550505050565b600060016008805490506136fc9190615271565b905060006009600084815260200190815260200160002054905060006008838154811061372c5761372b61495d565b5b90600052602060002001549050806008838154811061374e5761374d61495d565b5b90600052602060002001819055508160096000838152602001908152602001600020819055506009600085815260200190815260200160002060009055600880548061379d5761379c61558f565b5b6001900381819060005260206000200160009055905550505050565b60006137c483610bea565b905081600660008573ffffffffffffffffffffffffffffffffffffffff1673ffffffffffffffffffffffffffffffffffffffff168152602001908152602001600020600083815260200190815260200160002081905550806007600084815260200190815260200160002081905550505050565b82805461384490614429565b90600052602060002090601f01602090048101928261386657600085556138ad565b82601f1061387f57805160ff19168380011785556138ad565b828001600101855582156138ad579182015b828111156138ac578251825591602001919060010190613891565b5b5090506138ba91906138be565b5090565b5b808211156138d75760008160009055506001016138bf565b5090565b6000604051905090565b600080fd5b600080fd5b60007fffffffff0000000000000000000000000000000000000000000000000000000082169050919050565b613924816138ef565b811461392f57600080fd5b50565b6000813590506139418161391b565b92915050565b60006020828403121561395d5761395c6138e5565b5b600061396b84828501613932565b91505092915050565b60008115159050919050565b61398981613974565b82525050565b60006020820190506139a46000830184613980565b92915050565b600081519050919050565b600082825260208201905092915050565b60005b838110156139e45780820151818401526020810190506139c9565b838111156139f3576000848401525b50505050565b6000601f19601f8301169050919050565b6000613a15826139aa565b613a1f81856139b5565b9350613a2f8185602086016139c6565b613a38816139f9565b840191505092915050565b60006020820190508181036000830152613a5d8184613a0a565b905092915050565b6000819050919050565b613a7881613a65565b8114613a8357600080fd5b50565b600081359050613a9581613a6f565b92915050565b600060208284031215613ab157613ab06138e5565b5b6000613abf84828501613a86565b91505092915050565b600073ffffffffffffffffffffffffffffffffffffffff82169050919050565b6000613af382613ac8565b9050919050565b613b0381613ae8565b82525050565b6000602082019050613b1e6000830184613afa565b92915050565b613b2d81613ae8565b8114613b3857600080fd5b50565b600081359050613b4a81613b24565b92915050565b60008060408385031215613b6757613b666138e5565b5b6000613b7585828601613b3b565b9250506020613b8685828601613a86565b9150509250929050565b613b9981613a65565b82525050565b6000602082019050613bb46000830184613b90565b92915050565b600080600060608486031215613bd357613bd26138e5565b5b6000613be186828701613b3b565b9350506020613bf286828701613b3b565b9250506040613c0386828701613a86565b9150509250925092565b600080fd5b600080fd5b7f4e487b7100000000000000000000000000000000000000000000000000000000600052604160045260246000fd5b613c4f826139f9565b810181811067ffffffffffffffff82111715613c6e57613c6d613c17565b5b80604052505050565b6000613c816138db565b9050613c8d8282613c46565b919050565b600067ffffffffffffffff821115613cad57613cac613c17565b5b613cb6826139f9565b9050602081019050919050565b82818337600083830152505050565b6000613ce5613ce084613c92565b613c77565b905082815260208101848484011115613d0157613d00613c12565b5b613d0c848285613cc3565b509392505050565b600082601f830112613d2957613d28613c0d565b5b8135613d39848260208601613cd2565b91505092915050565b60008060008060008060008060008060006101608c8e031215613d6857613d676138e5565b5b6000613d768e828f01613a86565b9b505060208c013567ffffffffffffffff811115613d9757613d966138ea565b5b613da38e828f01613d14565b9a505060408c013567ffffffffffffffff811115613dc457613dc36138ea565b5b613dd08e828f01613d14565b9950506060613de18e828f01613a86565b98505060808c013567ffffffffffffffff811115613e0257613e016138ea565b5b613e0e8e828f01613d14565b97505060a08c013567ffffffffffffffff811115613e2f57613e2e6138ea565b5b613e3b8e828f01613d14565b96505060c08c013567ffffffffffffffff811115613e5c57613e5b6138ea565b5b613e688e828f01613d14565b95505060e08c013567ffffffffffffffff811115613e8957613e886138ea565b5b613e958e828f01613d14565b9450506101008c013567ffffffffffffffff811115613eb757613eb66138ea565b5b613ec38e828f01613d14565b9350506101208c013567ffffffffffffffff811115613ee557613ee46138ea565b5b613ef18e828f01613d14565b9250506101408c013567ffffffffffffffff811115613f1357613f126138ea565b5b613f1f8e828f01613d14565b9150509295989b509295989b9093969950565b600060208284031215613f4857613f476138e5565b5b6000613f5684828501613b3b565b91505092915050565b6000610140820190508181036000830152613f7a818d613a0a565b90508181036020830152613f8e818c613a0a565b9050613f9d604083018b613b90565b8181036060830152613faf818a613a0a565b90508181036080830152613fc38189613a0a565b905081810360a0830152613fd78188613a0a565b905081810360c0830152613feb8187613a0a565b905081810360e0830152613fff8186613a0a565b90508181036101008301526140148185613a0a565b90508181036101208301526140298184613a0a565b90509b9a5050505050505050505050565b60008060008060008060008060008060006101608c8e0312156140605761405f6138e5565b5b60008c013567ffffffffffffffff81111561407e5761407d6138ea565b5b61408a8e828f01613d14565b9b505060208c013567ffffffffffffffff8111156140ab576140aa6138ea565b5b6140b78e828f01613d14565b9a505060406140c88e828f01613a86565b99505060608c013567ffffffffffffffff8111156140e9576140e86138ea565b5b6140f58e828f01613d14565b98505060808c013567ffffffffffffffff811115614116576141156138ea565b5b6141228e828f01613d14565b97505060a08c013567ffffffffffffffff811115614143576141426138ea565b5b61414f8e828f01613d14565b96505060c08c013567ffffffffffffffff8111156141705761416f6138ea565b5b61417c8e828f01613d14565b95505060e08c013567ffffffffffffffff81111561419d5761419c6138ea565b5b6141a98e828f01613d14565b9450506101008c013567ffffffffffffffff8111156141cb576141ca6138ea565b5b6141d78e828f01613d14565b9350506101208c013567ffffffffffffffff8111156141f9576141f86138ea565b5b6142058e828f01613d14565b9250506101406142178e828f01613b3b565b9150509295989b509295989b9093969950565b61423381613974565b811461423e57600080fd5b50565b6000813590506142508161422a565b92915050565b6000806040838503121561426d5761426c6138e5565b5b600061427b85828601613b3b565b925050602061428c85828601614241565b9150509250929050565b600067ffffffffffffffff8211156142b1576142b0613c17565b5b6142ba826139f9565b9050602081019050919050565b60006142da6142d584614296565b613c77565b9050828152602081018484840111156142f6576142f5613c12565b5b614301848285613cc3565b509392505050565b600082601f83011261431e5761431d613c0d565b5b813561432e8482602086016142c7565b91505092915050565b60008060008060808587031215614351576143506138e5565b5b600061435f87828801613b3b565b945050602061437087828801613b3b565b935050604061438187828801613a86565b925050606085013567ffffffffffffffff8111156143a2576143a16138ea565b5b6143ae87828801614309565b91505092959194509250565b600080604083850312156143d1576143d06138e5565b5b60006143df85828601613b3b565b92505060206143f085828601613b3b565b9150509250929050565b7f4e487b7100000000000000000000000000000000000000000000000000000000600052602260045260246000fd5b6000600282049050600182168061444157607f821691505b60208210811415614455576144546143fa565b5b50919050565b7f4552433732313a20617070726f76616c20746f2063757272656e74206f776e6560008201527f7200000000000000000000000000000000000000000000000000000000000000602082015250565b60006144b76021836139b5565b91506144c28261445b565b604082019050919050565b600060208201905081810360008301526144e6816144aa565b9050919050565b7f4552433732313a20617070726f76652063616c6c6572206973206e6f7420746f60008201527f6b656e206f776e6572206f7220617070726f76656420666f7220616c6c000000602082015250565b6000614549603d836139b5565b9150614554826144ed565b604082019050919050565b600060208201905081810360008301526145788161453c565b9050919050565b7f4e487b7100000000000000000000000000000000000000000000000000000000600052601160045260246000fd5b60006145b982613a65565b91507fffffffffffffffffffffffffffffffffffffffffffffffffffffffffffffffff8214156145ec576145eb61457f565b5b600182019050919050565b7f4552433732313a2063616c6c6572206973206e6f7420746f6b656e206f776e6560008201527f72206f7220617070726f76656400000000000000000000000000000000000000602082015250565b6000614653602d836139b5565b915061465e826145f7565b604082019050919050565b6000602082019050818103600083015261468281614646565b9050919050565b7f4669727374206e616d652063616e6e6f7420626520656d707479000000000000600082015250565b60006146bf601a836139b5565b91506146ca82614689565b602082019050919050565b600060208201905081810360008301526146ee816146b2565b9050919050565b7f4c617374206e616d652063616e6e6f7420626520656d70747900000000000000600082015250565b600061472b6019836139b5565b9150614736826146f5565b602082019050919050565b6000602082019050818103600083015261475a8161471e565b9050919050565b7f496e76616c69642064617465206f662062697274680000000000000000000000600082015250565b60006147976015836139b5565b91506147a282614761565b602082019050919050565b600060208201905081810360008301526147c68161478a565b9050919050565b7f4964656e7469747920646f6573206e6f74206578697374000000000000000000600082015250565b60006148036017836139b5565b915061480e826147cd565b602082019050919050565b60006020820190508181036000830152614832816147f6565b9050919050565b7f455243373231456e756d657261626c653a206f776e657220696e646578206f7560008201527f74206f6620626f756e6473000000000000000000000000000000000000000000602082015250565b6000614895602b836139b5565b91506148a082614839565b604082019050919050565b600060208201905081810360008301526148c481614888565b9050919050565b7f455243373231456e756d657261626c653a20676c6f62616c20696e646578206f60008201527f7574206f6620626f756e64730000000000000000000000000000000000000000602082015250565b6000614927602c836139b5565b9150614932826148cb565b604082019050919050565b600060208201905081810360008301526149568161491a565b9050919050565b7f4e487b7100000000000000000000000000000000000000000000000000000000600052603260045260246000fd5b7f4552433732313a20696e76616c696420746f6b656e2049440000000000000000600082015250565b60006149c26018836139b5565b91506149cd8261498c565b602082019050919050565b600060208201905081810360008301526149f1816149b5565b9050919050565b7f4552433732313a2061646472657373207a65726f206973206e6f74206120766160008201527f6c6964206f776e65720000000000000000000000000000000000000000000000602082015250565b6000614a546029836139b5565b9150614a5f826149f8565b604082019050919050565b60006020820190508181036000830152614a8381614a47565b9050919050565b7f4e6f7420746865206f776e6572206f6620746865206964656e74697479000000600082015250565b6000614ac0601d836139b5565b9150614acb82614a8a565b602082019050919050565b60006020820190508181036000830152614aef81614ab3565b9050919050565b7f4164647265737320616c72656164792068617320616e206964656e7469747900600082015250565b6000614b2c601f836139b5565b9150614b3782614af6565b602082019050919050565b60006020820190508181036000830152614b5b81614b1f565b9050919050565b7f466174686572206e616d652063616e6e6f7420626520656d7074790000000000600082015250565b6000614b98601b836139b5565b9150614ba382614b62565b602082019050919050565b60006020820190508181036000830152614bc781614b8b565b9050919050565b7f4d6f74686572206e616d652063616e6e6f7420626520656d7074790000000000600082015250565b6000614c04601b836139b5565b9150614c0f82614bce565b602082019050919050565b60006020820190508181036000830152614c3381614bf7565b9050919050565b7f506c616365206f662062697274682063616e6e6f7420626520656d7074790000600082015250565b6000614c70601e836139b5565b9150614c7b82614c3a565b602082019050919050565b60006020820190508181036000830152614c9f81614c63565b9050919050565b7f47656e6465722063616e6e6f7420626520656d70747900000000000000000000600082015250565b6000614cdc6016836139b5565b9150614ce782614ca6565b602082019050919050565b60006020820190508181036000830152614d0b81614ccf565b9050919050565b7f536f6369616c207374617475732063616e6e6f7420626520656d707479000000600082015250565b6000614d48601d836139b5565b9150614d5382614d12565b602082019050919050565b60006020820190508181036000830152614d7781614d3b565b9050919050565b7f436974792063616e6e6f7420626520656d707479000000000000000000000000600082015250565b6000614db46014836139b5565b9150614dbf82614d7e565b602082019050919050565b60006020820190508181036000830152614de381614da7565b9050919050565b7f496d6167652063616e6e6f7420626520656d7074790000000000000000000000600082015250565b6000614e206015836139b5565b9150614e2b82614dea565b602082019050919050565b60006020820190508181036000830152614e4f81614e13565b9050919050565b7f496e76616c69642061737369676e656520616464726573730000000000000000600082015250565b6000614e8c6018836139b5565b9150614e9782614e56565b602082019050919050565b60006020820190508181036000830152614ebb81614e7f565b9050919050565b600081905092915050565b6000614ed8826139aa565b614ee28185614ec2565b9350614ef28185602086016139c6565b80840191505092915050565b6000614f0a8285614ecd565b9150614f168284614ecd565b91508190509392505050565b7f4f776e61626c653a206e6577206f776e657220697320746865207a65726f206160008201527f6464726573730000000000000000000000000000000000000000000000000000602082015250565b6000614f7e6026836139b5565b9150614f8982614f22565b604082019050919050565b60006020820190508181036000830152614fad81614f71565b9050919050565b7f4552433732313a207472616e736665722066726f6d20696e636f72726563742060008201527f6f776e6572000000000000000000000000000000000000000000000000000000602082015250565b60006150106025836139b5565b915061501b82614fb4565b604082019050919050565b6000602082019050818103600083015261503f81615003565b9050919050565b7f4552433732313a207472616e7366657220746f20746865207a65726f2061646460008201527f7265737300000000000000000000000000000000000000000000000000000000602082015250565b60006150a26024836139b5565b91506150ad82615046565b604082019050919050565b600060208201905081810360008301526150d181615095565b9050919050565b7f4f776e61626c653a2063616c6c6572206973206e6f7420746865206f776e6572600082015250565b600061510e6020836139b5565b9150615119826150d8565b602082019050919050565b6000602082019050818103600083015261513d81615101565b9050919050565b7f4552433732313a20617070726f766520746f2063616c6c657200000000000000600082015250565b600061517a6019836139b5565b915061518582615144565b602082019050919050565b600060208201905081810360008301526151a98161516d565b9050919050565b7f4552433732313a207472616e7366657220746f206e6f6e20455243373231526560008201527f63656976657220696d706c656d656e7465720000000000000000000000000000602082015250565b600061520c6032836139b5565b9150615217826151b0565b604082019050919050565b6000602082019050818103600083015261523b816151ff565b9050919050565b7f4e487b7100000000000000000000000000000000000000000000000000000000600052601260045260246000fd5b600061527c82613a65565b915061528783613a65565b92508282101561529a5761529961457f565b5b828203905092915050565b60006152b082613a65565b91506152bb83613a65565b9250826152cb576152ca615242565b5b828204905092915050565b7f546f6b656e206e6f74207472616e7366657261626c6500000000000000000000600082015250565b600061530c6016836139b5565b9150615317826152d6565b602082019050919050565b6000602082019050818103600083015261533b816152ff565b9050919050565b600081519050919050565b600082825260208201905092915050565b600061536982615342565b615373818561534d565b93506153838185602086016139c6565b61538c816139f9565b840191505092915050565b60006080820190506153ac6000830187613afa565b6153b96020830186613afa565b6153c66040830185613b90565b81810360608301526153d8818461535e565b905095945050505050565b6000815190506153f28161391b565b92915050565b60006020828403121561540e5761540d6138e5565b5b600061541c848285016153e3565b91505092915050565b7f455243373231456e756d657261626c653a20636f6e736563757469766520747260008201527f616e7366657273206e6f7420737570706f727465640000000000000000000000602082015250565b60006154816035836139b5565b915061548c82615425565b604082019050919050565b600060208201905081810360008301526154b081615474565b9050919050565b7f4552433732313a206d696e7420746f20746865207a65726f2061646472657373600082015250565b60006154ed6020836139b5565b91506154f8826154b7565b602082019050919050565b6000602082019050818103600083015261551c816154e0565b9050919050565b7f4552433732313a20746f6b656e20616c7265616479206d696e74656400000000600082015250565b6000615559601c836139b5565b915061556482615523565b602082019050919050565b600060208201905081810360008301526155888161554c565b9050919050565b7f4e487b7100000000000000000000000000000000000000000000000000000000600052603160045260246000fdfea264697066735822122089c3e023f3fc2b3923d634dcc92f728a541716d7c85b6697ff3f19914aff5da564736f6c63430008090033",
  "linkReferences": {},
  "deployedLinkReferences": {}
}